:020000040000FA
:03000000043E1D9E
:0300010004339431
:030002000429309E
:03000300041EEFE9
:030004000414D20F
:03000500040AD812
:030006000400FFF4
:0300070003F748B4
:0300080003EDB154
:0300090003E43BD2
:03000A0003DAE531
:03000B0003D1AE70
:03000C0003C89690
:03000D0003BF9C92
:03000E0003B6C076
:03000F0003AE013C
:0300100003A55EE7
:03001100039CD875
:0300120003946EE6
:03001300038C1F3C
:030014000383EB78
:03001500037BD199
:030016000373D29F
:03001700036BEC8C
:0300180003641F5F
:03001900035C6B1A
:03001A000354CFBD
:03001B00034D4C46
:03001C000345E0B9
:03001D00033E8B14
:03001E0003374E57
:03001F0003302784
:030020000329169B
:0300210003221B9C
:03002200031B3588
:030023000314655E
:03002400030DA920
:03002500030702CC
:0300260003006F65
:0300270002F9F0EB
:0300280002F3855B
:0300290002ED2DB8
:03002A0002E6E803
:03002B0002E0B63A
:03002C0002DA965F
:03002D0002D48971
:03002E0002CE8D72
:03002F0002C8A361
:0300300002C2CA3F
:0300310002BD030A
:0300320002B74CC6
:0300330002B1A671
:0300340002AC110A
:0300350002A68C94
:0300360002A1160E
:03003700029BB079
:0300380002965AD3
:030039000291131E
:03003A00028BDB5B
:03003B000286B288
:03003C00028197A7
:03003D00027C8BB7
:03003E0002778DB9
:03003F0002729CAE
:03004000026DBA94
:030041000268E56D
:0300420002641E37
:03004300025F64F5
:03004400025AB7A6
:0300450002561749
:03004600025183E1
:03004700024CFD6B
:03004800024882E9
:030049000244135B
:03004A00023FB1C1
:03004B00023B5A1B
:03004C0002370F69
:03004D000232D0AC
:03004E00022E9CE3
:03004F00022A730F
:030050000226562F
:0300510002224345
:03005200021E3B50
:03005300021A3D51
:0300540002164A47
:0300550002126232
:03005600020E8314
:03005700020AAFEB
:030058000206E5B8
:030059000203247B
:03005A0001FF6D36
:03005B0001FBC0E6
:03005C0001F81C8C
:03005D0001F48229
:03005E0001F0F1BD
:03005F0001ED6947
:0300600001E9E9CA
:0300610001E67342
:0300620001E305B2
:0300630001DFA01A
:0300640001DC4478
:0300650001D8F0CF
:0300660001D5A41D
:0300670001D26162
:0300680001CF25A0
:0300690001CBF2D6
:03006A0001C8C703
:03006B0001C5A329
:03006C0001C28747
:03006D0001BF735D
:03006E0001BC666C
:03006F0001B96074
:0300700001B66274
:0300710001B36B6D
:0300720001B07C5E
:0300730001AD9349
:0300740001AAB22C
:0300750001A7D709
:0300760001A503DE
:0300770001A236AD
:03007800019F7075
:03007900019CB037
:03007A000199F7F2
:03007B00019744A6
:03007C0001949755
:03007D000191F1FD
:03007E00018F519E
:03007F00018CB73A
:03008000018A23CF
:030081000187955F
:0300820001850DE8
:0300830001828B6C
:0300840001800EEA
:03008500017D9862
:03008600017B27D4
:030087000178BB42
:03008800017655A9
:030089000173F50B
:03008A0001719A67
:03008B00016F44BE
:03008C00016CF410
:03008D00016AA95C
:03008E00016862A4
:03008F00016621E6
:030090000163E623
:030091000161AF5B
:03009200015F7D8E
:03009300015D4FBD
:03009400015B27E6
:030095000159030B
:030096000156E52B
:030097000154CA47
:030098000152B55D
:030099000150A46F
:03009A00014E977D
:03009B00014C8F86
:03009C00014A8C8A
:03009D0001488C8B
:03009E0001469187
:03009F0001449B7E
:0300A0000142A872
:0300A1000140BA61
:0300A200013ED04C
:0300A300013CE934
:0300A400013B0716
:0300A500013929F5
:0300A60001374FD0
:0300A700013579A7
:0300A8000133A77A
:0300A9000131D84A
:0300AA0001300E14
:0300AB00012E47DC
:0300AC00012C83A1
:0300AD00012AC461
:0300AE000129081D
:0300AF00012750D6
:0300B00001259B8C
:0300B1000123EA3E
:0300B20001223CEC
:0300B30001209297
:0300B400011EEB3F
:0300B500011D47E3
:0300B600011BA784
:0300B700011A0A21
:0300B800011871BB
:0300B9000116DB52
:0300BA00011547E6
:0300BB000113B876
:0300BC0001122B03
:0300BD000110A18E
:0300BE00010F1B14
:0300BF00010D9799
:0300C000010C1719
:0300C100010A9998
:0300C20001091F12
:0300C3000107A78B
:0300C40001063200
:0300C5000104C073
:0300C600010351E2
:0300C7000101E54F
:0300C80001007CB8
:0300C90000FF1520
:0300CA0000FDB185
:0300CB0000FC50E6
:0300CC0000FAF245
:0300CD0000F996A1
:0300CE0000F83DFA
:0300CF0000F6E652
:0300D00000F592A6
:0300D10000F441F7
:0300D20000F2F247
:0300D30000F1A594
:0300D40000F05CDD
:0300D50000EF1425
:0300D60000EDCF6B
:0300D70000EC8CAE
:0300D80000EB4CEE
:0300D90000EA0E2C
:0300DA0000E8D368
:0300DB0000E79AA1
:0300DC0000E663D8
:0300DD0000E52E0D
:0300DE0000E3FC40
:0300DF0000E2CC70
:0300E00000E19E9E
:0300E10000E072CA
:0300E20000DF48F4
:0300E30000DE211B
:0300E40000DCFC41
:0300E50000DBD865
:0300E60000DAB786
:0300E70000D998A5
:0300E80000D87CC1
:0300E90000D761DC
:0300EA0000D648F5
:0300EB0000D5310C
:0300EC0000D41C21
:0300ED0000D30934
:0300EE0000D1F846
:0300EF0000D0E955
:0300F00000CFDC62
:0300F10000CED16D
:0300F20000CDC777
:0300F30000CCC07E
:0300F40000CBBA84
:0300F50000CAB688
:0300F60000C9B48A
:0300F70000C8B48A
:0300F80000C7B589
:0300F90000C6B985
:0300FA0000C5BE80
:0300FB0000C4C47A
:0300FC0000C3CD71
:0300FD0000C2D767
:0300FE0000C1E35B
:0300FF0000C0F04E
:0301000005FFFFF9
:0301010005F11AEB
:0301020005E267AC
:0301030005D3E839
:0301040005C59A94
:0301050005B77DBE
:0301060005A990B8
:03010700059BD382
:03010800058E441D
:030109000580E38B
:03010A000573AFCB
:03010B000566A6E0
:03010C000559CAC8
:03010D00054D1885
:03010E0005409019
:03010F0005343282
:030110000527FCC4
:03011100051BEEDD
:03011200051007CE
:0301130005044799
:0301140004F8AD3F
:0301150004ED38BE
:0301160004E1E918
:0301170004D6BD4E
:0301180004CBB560
:0301190004C0D14E
:03011A0004B60E1A
:03011B0004AB6EC4
:03011C0004A0EF4D
:03011D00049691B4
:03011E00048C54FA
:03011F0004823621
:0301200004783828
:03012100046E5910
:03012200046498DA
:03012300045AF586
:0301240004516F14
:0301250004480784
:03012600043EBBD9
:0301270004358B11
:03012800042C782C
:0301290004237F2D
:03012A00041AA113
:03012B000411DEDE
:03012C000409358E
:03012D000400A625
:03012E0003F82FA4
:03012F0003EFD209
:0301300003E78E54
:0301310003DF6287
:0301320003D74DA3
:0301330003CF50A7
:0301340003C76B93
:0301350003BF9C69
:0301360003B7E329
:0301370003B041D1
:0301380003A8B564
:0301390003A13EE1
:03013A000399DD49
:03013B000392909C
:03013C00038B58DA
:03013D0003843503
:03013E00037D2519
:03013F0003762A1A
:03014000036F4109
:0301410003686DE3
:030142000361ABAB
:03014300035AFB61
:0301440003545E03
:03014500034DD493
:0301460003475B11
:030147000340F47E
:03014800033A9FD8
:0301490003345A22
:03014A00032E275A
:03014B0003280482
:03014C000321F29A
:03014D00031BF0A1
:03014E000315FF97
:03014F0003101D7D
:03015000030A4A55
:030151000304881C
:0301520002FED4D6
:0301530002F9307E
:0301540002F39A19
:0301550002EE13A4
:0301560002E89A22
:0301570002E33090
:0301580002DDD4F1
:0301590002D88544
:03015A0002D34588
:03015B0002CE12BF
:03015C0002C8ECEA
:03015D0002C3D307
:03015E0002BEC816
:03015F0002B9C919
:0301600002B4D70F
:0301610002AFF2F8
:0301620002AB19D4
:0301630002A64CA5
:0301640002A18B6A
:03016500029CD623
:0301660002982DCF
:0301670002938F71
:03016800028EFD07
:03016900028A7691
:03016A000285FB10
:03016B0002818A84
:03016C00027D24ED
:03016D000278CA4B
:03016E000274799F
:03016F00027034E7
:03017000026BF827
:030171000267C75B
:030172000263A085
:03017300025F83A5
:03017400025B70BB
:03017500025767C7
:03017600025367CA
:03017700024F71C3
:03017800024B84B3
:030179000247A199
:03017A000243C776
:03017B00023FF64A
:03017C00023C2D15
:03017D0002386ED7
:03017E000234B890
:03017F0002310A40
:03018000022D65E8
:030181000229C888
:030182000226331F
:030183000222A7AE
:03018400021F2334
:03018500021BA7B3
:0301860002183428
:030187000214C897
:03018800021163FE
:03018900020E075C
:03018A00020AB2B4
:03018B0002076503
:03018C0002041F4B
:03018D000200E18C
:03018E0001FDA9C7
:03018F0001FA79F9
:0301900001F75123
:0301910001F42F47
:0301920001F11464
:0301930001EE007A
:0301940001EAF38A
:0301950001E7EC93
:0301960001E4ED94
:0301970001E1F48F
:0301980001DF0183
:0301990001DC1571
:03019A0001D92F59
:03019B0001D6503A
:03019C0001D37616
:03019D0001D0A3EB
:03019E0001CDD6BA
:03019F0001CB0F82
:0301A00001C84E45
:0301A10001C59302
:0301A20001C2DEB9
:0301A30001C02F69
:0301A40001BD8515
:0301A50001BAE1BB
:0301A60001B8425B
:0301A70001B5A9F6
:0301A80001B3168A
:0301A90001B0881A
:0301AA0001ADFFA5
:0301AB0001AB7C29
:0301AC0001A8FEA9
:0301AD0001A68523
:0301AE0001A41198
:0301AF0001A1A209
:0301B000019F3973
:0301B100019CD4DA
:0301B200019A743B
:0301B30001981997
:0301B4000195C3EF
:0301B50001937241
:0301B6000191268E
:0301B700018EDED8
:0301B800018C9B1C
:0301B900018A5C5C
:0301BA0001882297
:0301BB000185ECCF
:0301BC000183BB01
:0301BD0001818F2E
:0301BE00017F6658
:0301BF00017D427D
:0301C000017B239D
:0301C100017907BA
:0301C2000176F0D3
:0301C3000174DDE7
:0301C4000172CDF8
:0301C5000170C204
:0301C600016EBB0C
:0301C700016CB810
:0301C800016AB910
:0301C9000168BE0C
:0301CA000166C704
:0301CB000164D4F8
:0301CC000162E4E9
:0301CD000160F8D6
:0301CE00015F10BE
:0301CF00015D2BA4
:0301D000015B4B85
:0301D10001596D64
:0301D2000157943E
:0301D3000155BE15
:0301D4000153EBE9
:0301D50001521CB8
:0301D60001505085
:0301D700014E884E
:0301D800014CC314
:0301D900014B02D5
:0301DA0001494395
:0301DB0001478851
:0301DC000145D109
:0301DD0001441CBE
:0301DE0001426B70
:0301DF000140BD1F
:0301E000013F12CA
:0301E100013D6A73
:0301E200013BC519
:0301E300013A23BB
:0301E4000138855A
:0301E5000136E9F7
:0301E60001355090
:0301E7000133BA27
:0301E800013227BA
:0301E9000130974B
:0301EA00012F0AD8
:0301EB00012D8063
:0301EC00012BF8EC
:0301ED00012A7371
:0301EE000128F1F4
:0301EF0001277273
:0301F0000125F5F1
:0301F10001247B6B
:0301F200012304E2
:0301F30001218F58
:0301F40001201DCA
:0301F500011EAD3B
:0301F600011D41A7
:0301F700011BD613
:0301F800011A6E7B
:0301F900011909E0
:0301FA000117A644
:0301FB00011645A5
:0301FC000114E704
:0301FD0001138C5F
:0301FE00011232B9
:0301FF000110DB11
:00000001ff
