:020000040000FA
:03000000017E2856
:0300010000A2D585
:030002000FCAF230
:030003000EF7AB4A
:030004000E28AD16
:030005000D5EDBB2
:030006000C98084B
:030007000BD5FF17
:030008000B187062
:030009000A5DEAA3
:03000A0009A77DC6
:03000B0008F5A74E
:03000C000846D6CD
:03000D00079B1836
:03000E0006F323D3
:03000F00064F0891
:0300100005AD79C2
:03001100050FE9EF
:03001200047479FA
:0300130003DCDC2F
:030014000348603E
:0300150002B662CE
:030016000227E6D8
:03001700019B9BAF
:0300180001119D36
:03001900008BADAC
:03001A000006EBF2
:03001B000F854806
:03001C000F068547
:03001D000E8989C0
:03001E000E0F932F
:03001F000D97FF3B
:030020000D226747
:030021000CAEDC46
:030022000C3DCCC6
:030023000BCEA958
:030024000B60DD91
:030025000AF5C415
:030026000A8C80C1
:030027000A267C2A
:0300280009C0B755
:03002900095D78F6
:03002A0008FB9E32
:03002B00089C2707
:03002C00083EADDE
:03002D0007E1D414
:03002E0007877DC4
:03002F00072E1287
:0300300006D739B7
:03003100068189BC
:03003200062D1F79
:0300330005DA7F6C
:0300340005899D9E
:030035000539404A
:0300360004EB24B4
:03003700049E7DA7
:03003800045281EE
:030039000407B009
:03003A0003BED62C
:03003B0003771F29
:03003C0003307816
:03003D0002EAC113
:03003E0002A724F2
:03003F0002642F29
:0300400002221D7C
:0300410001E16B6F
:0300420001A21602
:030043000163173F
:030044000125ABE8
:0300450000E915BA
:0300460000AE26E3
:03004700007379CA
:030048000039B7C5
:030049000001199A
:03004A000FCA5387
:03004B000F9331DF
:03004C000F5D2A1B
:03004D000F28A5D4
:03004E000EF45C51
:03004F000EC15689
:030050000E8EC948
:030051000E5DFB46
:030052000E2D3739
:030053000DFC4D54
:030054000DCE06C8
:030055000D9F6993
:030056000D711C0D
:030057000D4489CC
:030058000D185C24
:030059000CED1398
:03005A000CC1CC0A
:03005B000C97B54A
:03005C000C6ED94E
:03005D000C45A6A9
:03005E000C1DF482
:03005F000BF6603D
:030060000BCEF6CE
:030061000BA8DA0F
:030062000B82FA14
:030063000B5D5BD7
:030064000B38D680
:030065000B151B5D
:030066000AF1712B
:030067000ACEBB03
:030068000AABF7E9
:030069000A8AD42C
:03006A000A686CB5
:03006B000A4853ED
:03006C000A27FF61
:03006D000A07EF90
:03006E0009E84856
:03006F0009C97D3F
:0300700009AA9842
:03007100098CA156
:03007200096EF420
:03007300095257D8
:0300740009354407
:030075000918B5B2
:0300760008FD641E
:0300770008E13F5E
:0300780008C67C3B
:0300790008AC6A66
:03007A0008919E4C
:03007B000877FC07
:03007C00085ECF4C
:03007D000844E351
:03007E00082C4B00
:03007F000813B8AB
:0300800007FB4A31
:0300810007E3C4CE
:0300820007CC7533
:0300830007B5C0FE
:03008400079EA331
:030085000787CD1D
:03008600077214EA
:03008700075BF91B
:0300880007463DEB
:030089000730E855
:03008A00071C51FF
:03008B000707AABA
:03008C0006F37800
:03008D0006DFA6E5
:03008E0006CBBAE4
:03008F0006B8624E
:0300900006A43B88
:0300910006916D68
:03009200067F05E1
:03009300066CE018
:03009400065A18F1
:030095000647F12A
:0300960006369D8E
:03009700062487B5
:0300980006134606
:030099000602E27A
:03009A0005F2115B
:03009B0005E14438
:03009C0005D05B31
:03009D0005C0F6A5
:03009E0005B0406A
:03009F0005A0DDDC
:0300A00005916067
:0300A1000581A630
:0300A20005735291
:0300A3000564A051
:0300A4000555C33C
:0300A50005474CC0
:0300A6000538C159
:0300A700052A80A7
:0300A800051CB67E
:0300A900050E6ED3
:0300AA00050177D6
:0300AB0004F385D6
:0300AC0004E5D593
:0300AD0004D9561D
:0300AE0004CBCBB5
:0300AF0004BF0784
:0300B00004B2DABD
:0300B10004A67D25
:0300B200049A2B82
:0300B300048DFBBE
:0300B4000481695B
:0300B5000476319D
:0300B600046A6574
:0300B700045EA83C
:0300B8000453C826
:0300B9000448A454
:0300BA00043D6C96
:0300BB0004320B01
:0300BC000427B660
:0300BD00041C80A0
:0300BE00041247E2
:0300BF00040749EA
:0300C00003FD0637
:0300C10003F33016
:0300C20003E96FE0
:0300C30003DF0553
:0300C40003D5441D
:0300C50003CB7BEF
:0300C60003C174FF
:0300C70003B89FDC
:0300C80003AF4D36
:0300C90003A60982
:0300CA00039CBBD9
:0300CB0003937824
:0300CC00038A861E
:0300CD000382406B
:0300CE0003793380
:0300CF0003707546
:0300D00003685171
:0300D100035F507A
:0300D2000356CA08
:0300D300034EDDFC
:0300D4000346F8E8
:0300D500033EC027
:0300D60003368F5F
:0300D700032F51A3
:0300D8000327B645
:0300D900032008F9
:0300DA000318897F
:0300DB000310D23D
:0300DC00030956BF
:0300DD000301D745
:0300DE0002FB4CD6
:0300DF0002F3BF6A
:0300E00002ECD55A
:0300E10002E62D07
:0300E20002DE94A7
:0300E30002D8211F
:0300E40002D0C582
:0300E50002CA1636
:0300E60002C43F12
:0300E70002BDD780
:0300E80002B787D5
:0300E90002B0540E
:0300EA0002AA6601
:0300EB0002A43636
:0300EC00029D98DA
:0300ED0002975720
:0300EE0002915824
:0300EF00028C334D
:0300F00002862F56
:0300F10002804149
:0300F2000279D0C0
:0300F3000274ABE9
:0300F400026E9CFD
:0300F5000269BAE3
:0300F6000263E5BD
:0300F700025E0D99
:0300F80002599D0D
:0300F9000254317D
:0300FA00024E189B
:0300FB0002492F88
:0300FC000244B407
:0300FD00023F4C73
:0300FE000239E7DD
:0300FF0002348246
:0301000005FF4FA9
:0301010004C7F33D
:0301020003964B16
:03010300026C7615
:03010400014800AF
:0301050000299935
:030106000F119640
:030107000DFEF1F9
:030108000CF222D4
:030109000BEA9F5F
:03010A000AE9649B
:03010B0009EC9468
:03010C0008F52FC4
:03010D000802A144
:03010E000715EAE8
:03010F00062D5763
:0301100005486E31
:030111000469BAC4
:03011200038EA6B3
:0301130002B81B14
:0301140001E53BC7
:0301150001174F80
:03011600004D0396
:030117000F86AFA1
:030118000EC4B260
:030119000E06A22D
:03011A000D4AFB90
:03011B000C945CE5
:03011C000BE035C0
:03011D000B308321
:03011E000A833918
:03011F0009D9BB40
:0301200009337030
:030121000890142F
:0301220007EF8F55
:0301230007526C14
:0301240006B7E13A
:030125000620E7CA
:03012600058C4203
:0301270004FAFBDC
:03012800046C095B
:0301290003DF7A77
:03012A000355BDBD
:03012B0002CDC83A
:03012C000248EF97
:03012D0001C68D7B
:03012E0001466C1B
:03012F0000C943C1
:03013000004D522D
:030131000FD3CC1D
:030132000F5CCC93
:030133000EE86A69
:030134000E74B393
:030135000E044C69
:030136000D951311
:030137000D282C64
:030138000CBD23D8
:030139000C540360
:03013A000BEC7457
:03013B000B879E91
:03013C000B23048E
:03013D000AC13ABA
:03013E000A6095BF
:03013F000A027E33
:0301400009A52FDF
:0301410009494B1E
:0301420008EF299A
:0301430008972AF0
:0301440008405719
:0301450007EAA521
:03014600079624F5
:0301470007444228
:0301480006F2BA02
:0301490006A2F219
:03014A00065474E4
:03014B0006069B0A
:03014C0005BAB33E
:03014D00056FBC7F
:03014E000526295A
:03014F0004DE04C7
:0301500004965BB7
:0301510004510650
:03015200040BB2E9
:0301530003C831AD
:030154000384FE23
:030155000344243C
:0301560003034060
:0301570002C329B7
:0301580002850F0E
:03015900024789D1
:03015A00020B9500
:03015B0001D00EC2
:03015C000194DA31
:03015D00015AF054
:03015E00012288F3
:03015F0000EAE1D2
:0301600000B3B930
:03016100007D8599
:03016200004763F0
:03016300001295F2
:030164000FDF3C6E
:030165000FAC32AA
:030166000F79F717
:030167000F49231A
:030168000F17D599
:030169000EE7CCD2
:03016A000EB87854
:03016B000E89D624
:03016C000E5CD155
:03016D000E2F4D05
:03016E000E035924
:03016F000DD73673
:030170000DACB320
:030171000D814EAF
:030172000D57FB2B
:030173000D2E2529
:030174000D066015
:030175000CDDCBD3
:030176000CB66E56
:030177000C8FAD3D
:030178000C69A966
:030179000C43052F
:03017A000C1E6DEB
:03017B000BF95924
:03017C000BD5D7C9
:03017D000BB2843E
:03017E000B8EC520
:03017F000B6C0204
:030180000B4A5ACD
:030181000B2864E4
:030182000B0797D1
:030183000AE6CFBA
:030184000AC68C1C
:030185000AA71BAB
:030186000A87EFF6
:030187000A6847BC
:030188000A49FB26
:030189000A2BA49A
:03018A000A0E62F8
:03018B0009F0A3D5
:03018C0009D49FF4
:03018D0009B79619
:03018E00099BBA10
:03018F000980A044
:0301900009655DA1
:03019100094A9C7C
:030192000930161B
:03019300091555F6
:0301940008FBE87D
:0301950008E2B4C9
:0301960008C9C3D2
:0301970008B103A9
:030198000897FFC6
:0301990008805388
:03019A000867E211
:03019B00085136D2
:03019C000839C45B
:03019D000822DF56
:03019E00080BBE8D
:03019F0007F579E8
:0301A00007DF9BDB
:0301A10007CA6921
:0301A20007B50B93
:0301A300079FAB08
:0301A400078B11B5
:0301A50007762BAF
:0301A60007619D51
:0301A700074DEB16
:0301A800073AB65D
:0301A9000726899D
:0301AA00071372C6
:0301AB00070058F2
:0301AC0006EE2735
:0301AD0006DB0965
:0301AE0006C96F10
:0301AF0006B73759
:0301B00006A5564B
:0301B10006934969
:0301B2000681BC07
:0301B3000670A330
:0301B40006602AB8
:0301B500064FB939
:0301B600063EF210
:0301B700062DDD35
:0301B800061E1010
:0301B900060E2B04
:0301BA0005FE5AE5
:0301BB0005EF53FA
:0301BC0005E02734
:0301BD0005D082E8
:0301BE0005C1C3B5
:0301BF0005B25630
:0301C00005A4256E
:0301C10005964858
:0301C20005881E8F
:0301C300057A2C8E
:0301C400056BE0E8
:0301C500055E26AE
:0301C6000550439E
:0301C70005439D50
:0301C800053619E0
:0301C90005290AFB
:0301CA00051C4EC3
:0301CB00050EEF2F
:0301CC0005021118
:0301CD0004F6191C
:0301CE0004E9AE93
:0301CF0004DD5EEE
:0301D00004D195C2
:0301D10004C4FA69
:0301D20004B94825
:0301D30004AD8AEE
:0301D40004A2E999
:0301D50004977715
:0301D600048BF7A0
:0301D70004811789
:0301D80004761A90
:0301D900046B2490
:0301DA0004608B33
:0301DB0004558A3E
:0301DC00044B0EC3
:0301DD000440C813
:0301DE000436E004
:0301DF00042C3FAE
:0301E0000422EC0A
:0301E100041916E8
:0301E200040F12F5
:0301E3000405D937
:0301E40003FCB069
:0301E50003F2B86A
:0301E60003E968C2
:0301E70003E02909
:0301E80003D6AF8C
:0301E90003CD68DB
:0301EA0003C4D774
:0301EB0003BC173B
:0301EC0003B32535
:0301ED0003AA6CF6
:0301EE0003A27CED
:0301EF0003998EE3
:0301F00003915B1D
:0301F10003891B64
:0301F2000380E4A3
:0301F30003796C21
:0301F40003719202
:0301F5000369316A
:0301F60003615949
:0301F7000359EEBB
:0301F8000351E3CD
:0301F900034AF2C4
:0301FA00034311AB
:0301FB00033BBF04
:0301FC0003344485
:0301FD00032D6867
:0301FE000325795D
:0301FF00031EC01C
:00000001ff
