:020000040000FA
:030000000B332C93
:030001000DD09689
:0300020008161AC3
:030003000FE79371
:030004000B5F038C
:0300050000CC53D9
:0300060006B1AE92
:0300070003C5E24C
:030008000EF028CF
:030009000F47732B
:03000A000C12AA2B
:03000B000CC679A7
:03000C0009037C69
:03000D00089689C9
:03000E00037786EF
:03000F0001C782A4
:030010000BCFD73C
:030011000A02944C
:0300120004F6F5FC
:03001300056BDE9C
:030014000443C3DF
:030015000A856EEB
:03001600015B7E0D
:030017000211F6DD
:030018000616FDCC
:0300190006FA7D67
:03001A000E6A4427
:03001B0006358423
:03001C0008494F41
:03001D000EB036EC
:03001E000392E169
:03001F000135D3D5
:0300200001F9CF14
:03002100005AE49E
:0300220006F007DE
:030023000069EB86
:030024000792D46C
:03002500074EA6DD
:030026000A98EE47
:030027000C85DF66
:03002800083F6D21
:0300290009086E55
:03002A000A389EF3
:03002B00073E90FD
:03002C000B9DC267
:03002D0002EDE3FE
:03002E0008DCE308
:03002F00092AFC9F
:030030000FAD6EA3
:03003100084B90E9
:030032000F0003B9
:030033000FD7F7ED
:0300340006F25978
:03003500007F71D8
:0300360008C1C539
:030037000C0BDAD5
:0300380006C0BE41
:0300390005541457
:03003A000449D2A4
:03003B00003499F5
:03003C0005B67690
:03003D0001808BB4
:03003E0000531D4F
:03003F000EFBAF06
:030040000A56530A
:030041000F4D2040
:030042000AD74E8C
:0300430009F90CAC
:0300440009C43DAF
:030045000756B1AA
:030046000FDB28A5
:030047000087D35C
:03004800069FA26E
:030049000F70DC59
:03004A000855BC9A
:03004B000EB243AF
:03004C000FF73675
:03004D00099F8088
:03004E0009302650
:03004F000C396CFD
:030050000054F861
:03005100032788FA
:03005200025E2328
:030053000BB032BD
:030054000CDFC7F7
:0300550003B5D51B
:030056000E05E2B2
:0300570009AC9A57
:03005800048E789B
:030059000C9907F8
:03005A000FC1D102
:03005B000C077F10
:03005C000F704AD8
:03005D000809D3BC
:03005E0003EABFF3
:03005F0001304825
:030060000DFF8F02
:0300610008859E71
:030062000EF5D5C3
:030063000F8B26DA
:030064000887D733
:03006500083479E3
:030066000CE06A41
:0300670004E209A7
:030068000E958171
:03006900085EA08E
:03006A0000A55599
:03006B0005DA8F24
:03006C000672A376
:03006D0000E93473
:03006E0003BF8D40
:03006F000D7CBD48
:030070000CACE4F1
:030071000FE28C0F
:0300720005B4F3DF
:030073000CC1417C
:0300740003A8F3EB
:03007500091395D7
:030076000BADC807
:030077000A27F164
:0300780003391831
:03007900059C03E0
:03007A00000FABC9
:03007B0001592BFD
:03007C0008411D1B
:03007D0003946089
:03007E00022588D0
:03007F0002CA288A
:03008000045C938A
:0300810005BBC6F6
:0300820005CA03A9
:03008300036E33D6
:030084000D928555
:030085000325FC54
:03008600031B3E1B
:030087000C680002
:030088000E0669F8
:0300890006F42F4B
:03008A000632AA91
:03008B000AC63D65
:03008C0003B75760
:03008D0000118CD3
:03008E000EE3D8A6
:03008F000F40BE61
:03009000003D40F0
:0300910000F31A5F
:03009200007DEA04
:030093000DFCB3AE
:0300940008912EA2
:030095000F6117E1
:0300960001948052
:030097000E55D033
:0300980004D399F5
:03009900043E8999
:03009A000BC9A4EB
:03009B000AAB2B82
:03009C00001C0A3B
:03009D000B58738A
:03009E000B9D6453
:03009F00002CA290
:0300A0000848E825
:0300A1000337CC56
:0300A200004226F3
:0300A3000EB1D7C4
:0300A4000DD3EB8E
:0300A5000CF7DB7A
:0300A6000B6EFEE0
:0300A700088D7F42
:0300A80003A94C5D
:0300A9000C1A6EC0
:0300AA00013C0C0A
:0300AB000269B532
:0300AC000F0297A9
:0300AD000667D60D
:0300AE0007FB3C11
:0300AF00032256D3
:0300B0000743D231
:0300B10003C7F88A
:0300B20008197FAB
:0300B30003A4EDB6
:0300B40005D8610B
:0300B5000E24BF57
:0300B6000BFB152C
:0300B7000ECF9DCC
:0300B8000617F632
:0300B900014B05F3
:0300BA000FE1BC97
:0300BB0001568566
:0300BC0005265FB7
:0300BD000ACE3533
:0300BE0001CE422E
:0300BF0009A6F39C
:0300C00001DB5A07
:0300C10009EF9AAA
:0300C20001692FA2
:0300C30007CEE283
:0300C4000CA9DFA5
:0300C5000F83F1B5
:0300C6000FE872CE
:0300C7000D64E4E1
:0300C8000786E7C1
:0300C9000DDE3514
:0300CA000FFBDB4E
:0300CB000D72387B
:0300CC0005D4E96F
:0300CD0008B92E41
:0300CE0005B46E08
:0300CF000C5E9133
:0300D0000C50943D
:0300D1000523897B
:0300D20006733D75
:0300D3000FDBEE52
:0300D40000FAEE41
:0300D500096E941D
:0300D60008D6E663
:0300D7000ED51B28
:0300D8000B0A947C
:0300D9000D1A8776
:0300DA0004A95125
:0300DB00015BD5F1
:0300DC0002D89CAB
:0300DD0008C6C58D
:0300DE0002CF2529
:0300DF00009A176D
:0300E00001D2A7A3
:0300E100062402F0
:0300E2000D39DEF7
:0300E30006C2450D
:0300E400026A8528
:0300E5000FE25FC8
:0300E6000ED9D25E
:0300E7000F0141C5
:0300E800000AA467
:0300E90001A84B20
:0300EA00038E94EE
:0300EB0005713864
:0300EC0007055CA9
:0300ED0008017A8D
:0300EE00081C5299
:0300EF00070DCF2B
:0300F000048DD7A5
:0300F1000055EACD
:0300F2000A1FF4EE
:0300F30001A785DD
:0300F40006A73824
:0300F50008DC4ADA
:0300F6000802F508
:0300F70003D961C9
:0300F8000C1EBE1D
:0300F9000091383B
:0300FA0000F0D73C
:0300FB000CFF29CE
:0300FC00047D136D
:0300FD00072C12BB
:0300FE0004CF2B01
:0300FF000D29AE1A
:030100000FFFEFFF
:03010100018D75F8
:030102000C855C0D
:03010300029C1546
:0301040005D1150D
:0301050008706A15
:030106000D0FAA30
:03010700068B3232
:0301080008060BDB
:0301090004E6F910
:03010A0000D7B368
:03010B000FC1DA47
:03010C0005CF71AB
:03010D00076794ED
:03010E00092E8433
:03010F00000203E8
:0301100000FA00F2
:03011100016787FC
:0301120006D0789C
:0301130006F1AB47
:0301140007BB2402
:030115000F513255
:0301160004089B3F
:030117000C677FF3
:030118000F23AD05
:030119000320ECD4
:03011A000F6FFF65
:03011B000B4F91F6
:03011C000E27AA01
:03011D000F8C6BD9
:03011E000739920C
:03011F000D14DAE2
:03012000092ABDEC
:0301210003AE37F3
:0301220004F8726C
:03012300058773DA
:030124000DFD20AE
:03012500071F258C
:0301260009D513E5
:030127000F28D9C5
:030128000044CEC2
:0301290006742732
:03012A000B217A2C
:03012B0007D622D2
:03012C00063A553B
:03012D0000134973
:03012E000F436517
:03012F000DC98770
:0301300005BF8D7B
:03013100015BA6C9
:030132000AEDE9EA
:030133000CE0C419
:0301340001B716FA
:03013500040E872E
:030136000E9B51CC
:030137000C2ADFB0
:0301380007A160BC
:030139000BFA1AA4
:03013A000446AFC9
:03013B000BAF48BF
:03013C000D70271C
:03013D0004DCB629
:03013E000D5B3125
:03013F0002679DB7
:030140000F9042DB
:030141000077E262
:0301420000D430B6
:030143000C6DA19F
:030144000F1E5C2F
:0301450004D2AC35
:030146000988A97C
:0301470009503F1D
:0301480000486804
:030149000AA28C7B
:03014A00049F38D7
:03014B000A8EF524
:03014C0008D2A72F
:03014D000BD97754
:03014E000022622A
:03014F00023A9FD2
:030150000EBD9051
:030151000255DC78
:0301520009BA5E89
:0301530001B11ED9
:03015400070C2B6A
:0301550006AC31C4
:030156000D7CD647
:030157000877AC7A
:0301580004A2B945
:030159000F0F4243
:03015A0004DB19AA
:03015B00032F3D32
:03015C0007405009
:03015D000E4ECE75
:03015E0005A5B63E
:03015F000A9AAD4C
:030160000A8E16EE
:0301610002EB1896
:0301620001268EE5
:0301630002C033A4
:0301640005413121
:03016500063C0550
:03016600034D192D
:030167000A1A8CE5
:03016800085264D6
:030169000BAD38A3
:03016A0001EBA501
:03016B0008D7268C
:03016C000E420739
:03016D000005CCBE
:03016E000C06215B
:03016F00002CC29F
:030170000A6D61B4
:0301710008C1675B
:03017200092C2332
:0301730009B64585
:030174000871FB14
:0301750003769876
:0301760008E47921
:0301770006E1EFAF
:030178000B9CA13C
:0301790005483402
:03017A000220D38D
:03017B000066E833
:03017C000E6359B6
:03017D000A63EA28
:03017E0002BCE9D7
:03017F0005C9AA05
:0301800001EACBC6
:0301810005867878
:030182000F09CB97
:030183000CE64E39
:030184000D9420B7
:030185000F90BD1B
:03018600015EA473
:030187000185B936
:030188000E941DB5
:03018900071BC78A
:03018A0009B4EEC7
:03018B0004FB89E9
:03018C0007921EB9
:03018D00001DF75B
:03018E000D4B3BDB
:03018F000DC9BDDA
:03019000004D6CB3
:03019100038FC712
:03019200064E0D09
:03019300074A25F3
:03019400054ACF4A
:030195000F1A2717
:030196000386C617
:0301970001637988
:030198000786EAED
:0301990004CCA6ED
:03019A00081263E5
:03019B00003C0025
:03019C000C2EC95D
:03019D000AD56020
:03019E000B1D5DD9
:03019F000BF8B3A7
:0301A0000C5C38BC
:0301A1000B409B75
:0301A20007A17939
:0301A300007E6E6D
:0301A40004DA80FA
:0301A50003BB4752
:0301A6000C2A7CA4
:0301A7000D34C351
:0301A80005E9C99D
:0301A900055B9063
:0301AA000AA0FAAE
:0301AB0004D24338
:0301AC00030BD171
:0301AD00046B6878
:0301AE000813E053
:0301AF000D28B761
:0301B00002D17405
:0301B100083812F9
:0301B2000C89664F
:0301B3000EF4D671
:0301B4000EAC7816
:0301B5000AE4A6B3
:0301B60002D45D13
:0301B70005B52D5E
:0301B80002C3EB94
:0301B900093EAE4E
:0301BA0008665282
:0301BB000F7E8E26
:0301BC000DCCB7B0
:0301BD0002989015
:0301BE000D2CE421
:0301BF000CD585D7
:0301C00000E1DA81
:0301C10008A27C15
:0301C200036A03CA
:0301C300008DB9F3
:0301C4000F64A124
:0301C5000F482AB6
:0301C6000F935B39
:0301C7000FA3F390
:0301C8000ED8410D
:0301C9000C91E9AD
:0301CA000833D027
:0301CB0001227D91
:0301CC0006C5372E
:0301CD0008849013
:0301CE0005CA64FB
:0301CF000E031C00
:0301D000009CCFC1
:0301D1000D0660B8
:0301D20002B1F582
:0301D300011225F1
:0301D400079BFC8A
:0301D50005C51647
:0301D6000B058690
:0301D70006D70E3A
:0301D80008B46FF9
:0301D900001A52B7
:0301DA000C86EFA1
:0301DB000D798912
:0301DC000273A308
:0301DD000AF79E80
:0301DE00068994FB
:0301DF0004AE6DFE
:0301E00004EDD457
:0301E10006CF3115
:0301E20009DC47EE
:0301E3000DA04F1D
:0301E40001A74729
:0301E500057E6D27
:0301E60008B50F4A
:0301E7000ADB1D13
:0301E8000B81E7A1
:0301E9000A3C21AC
:0301EA00069DD49B
:0301EB00003BCE08
:0301EC0006AC2935
:0301ED00098691EF
:0301EE000863D1D2
:0301EF0002DCFC33
:0301F000088D7DFA
:0301F10009112CC5
:0301F2000404FD05
:0301F30009077881
:0301F40007B775D5
:0301F5000FB51F24
:0301F60000A25113
:0301F7000A216773
:0301F8000BD52BF9
:0301F9000563009B
:0301FA00066F4944
:0301FB000EA11A38
:0301FC000D9F8BC9
:0301FD00031341A8
:0301FE000EA4ACA0
:0301FF000FFEFDF3
:00000001ff
