:020000040000FA
:030000000205CB2B
:0300010002117D6C
:03000200021CEEEF
:0300030002283898
:030004000232C401
:03000500023D6A4F
:0300060002479618
:030007000251574C
:03000800025B098F
:0300090002646D21
:03000A00026DA2E2
:03000B000276C7B3
:03000C00027F9BD5
:03000D000287E97E
:03000E0002901647
:03000F000298074D
:03001000029FEF5D
:0300110002A7BE85
:0300120002AF42F8
:0300130002B64DE5
:0300140002BD83A7
:0300150002C475AD
:0300160002CB24F6
:0300170002D1B65D
:0300180002D811FA
:0300190002DE33D1
:03001A0002E47489
:03001B0002EA4EA8
:03001C0002F036B9
:03001D0002F60ADE
:03001E0002FB667C
:03001F000300CB10
:03002000030610C4
:03002100030B24AA
:03002200031023A5
:0300230003153E84
:030024000319CCF1
:03002500031E6A4D
:030026000322F5BD
:0300270003276448
:03002800032BEDBA
:030029000330366B
:03002A0003341884
:03002B0003385F38
:03002C00033C4A48
:03002D0003402865
:03002E000343ED9C
:03002F000347B6CE
:03003000034B146B
:03003100034ECDAE
:030032000352393D
:0300330003555F13
:030034000358E787
:03003500035C1D4C
:03003600035F4520
:030037000362570A
:030038000365510C
:0300390003682732
:03003A00036B1540
:03003B00036DF65C
:03003C00037089C5
:03003D0003731733
:03003E000375D96E
:03003F000378AB98
:03004000037ACF71
:03004100037D7EBE
:03004200037FC772
:03004300038261D4
:030044000384A290
:030045000386ED42
:0300460003891E0D
:03004700038B2EFA
:03004800038D5DC8
:03004900038F80A2
:03004A00039171AE
:03004B00039361BB
:03004C00039572A7
:03004D00039723F3
:03004E0003993CD7
:03004F00039ADE33
:03005000039CC846
:03005100039E7596
:0300520003A00EFA
:0300530003A20AFB
:0300540003A3B053
:0300550003A52FD1
:0300560003A6A757
:0300570003A82DCE
:0300580003A9DF1A
:0300590003AB15E1
:03005A0003ACD71D
:03005B0003AE27CA
:03005C0003AFC728
:03005D0003B0F9F4
:03005E0003B234B6
:03005F0003B37E6A
:0300600003B4E006
:0300610003B637AC
:0300620003B78A57
:0300630003B8CC13
:0300640003B9B924
:0300650003BAF7E4
:0300660003BBF1E8
:0300670003BD1EB8
:0300680003BE7163
:0300690003BF4989
:03006A0003C0854B
:03006B0003C1903E
:03006C0003C28349
:03006D0003C39D2D
:03006E0003C48A3E
:03006F0003C5497D
:0300700003C6596B
:0300710003C7655D
:0300720003C8665A
:0300730003C90EB0
:0300740003CA0DAF
:0300750003CAE0DB
:0300760003CB8F2A
:0300770003CCB9FE
:0300780003CD8134
:0300790003CE4172
:03007A0003CF2190
:03007B0003CFDED2
:03007C0003D0A10D
:03007D0003D15359
:03007E0003D1EFBC
:03007F0003D2ADFC
:0300800003D37730
:0300810003D41F86
:0300820003D4ECB8
:0300830003D57C26
:0300840003D6118F
:0300850003D6A9F6
:0300860003D77528
:0300870003D80A91
:0300880003D8C1D9
:0300890003D93E5A
:03008A0003D9F6A1
:03008B0003DA6233
:03008C0003DAEFA5
:03008D0003DB98FA
:03008E0003DBDDB4
:03008F0003DC91FE
:0300900003DD2568
:0300910003DDC4C8
:0300920003DE0288
:0300930003DEAFDA
:0300940003DF1D6A
:0300950003DF8DF9
:0300960003DFF392
:0300970003E0AED5
:0300980003E1156C
:0300990003E191EF
:03009A0003E1DDA2
:03009B0003E21D60
:03009C0003E299E3
:03009D0003E30278
:03009E0003E39DDC
:03009F0003E40A6D
:0300A00003E46A0C
:0300A10003E4D3A2
:0300A20003E5541F
:0300A30003E583EF
:0300A40003E5EA87
:0300A50003E6630C
:0300A60003E6C0AE
:0300A70003E71B51
:0300A80003E76EFD
:0300A90003E794D6
:0300AA0003E80D5B
:0300AB0003E870F7
:0300AC0003E8D591
:0300AD0003E8FE67
:0300AE0003E96AF9
:0300AF0003E975ED
:0300B00003E9F76A
:0300B10003EA60FF
:0300B20003EA8BD3
:0300B30003EAFE5F
:0300B40003EB510A
:0300B50003EB5802
:0300B60003EBA7B2
:0300B70003EBF860
:0300B80003EC63F3
:0300B90003EC73E2
:0300BA0003ECA9AB
:0300BB0003ECF45F
:0300BC0003ED2928
:0300BD0003ED5FF1
:0300BE0003EDF758
:0300BF0003EDF559
:0300C00003EE222A
:0300C10003EE5DEE
:0300C20003EEC585
:0300C30003EEF950
:0300C40003EF3B0C
:0300C50003EF78CE
:0300C60003EFC67F
:0300C70003EFE262
:0300C80003F04101
:0300C90003F0360B
:0300CA0003F076CA
:0300CB0003F0C17E
:0300CC0003F0DC62
:0300CD0003F0F34A
:0300CE0003F146F5
:0300CF0003F177C3
:0300D00003F1AA8F
:0300D10003F1F246
:0300D20003F21620
:0300D30003F20B2A
:0300D40003F268CC
:0300D50003F2A78C
:0300D60003F2A88A
:0300D70003F3151B
:0300D80003F30E21
:0300D90003F31B13
:0300DA0003F3220B
:0300DB0003F37EAE
:0300DC0003F3E04B
:0300DD0003F3C268
:0300DE0003F3D257
:0300DF0003F40027
:0300E00003F43CEA
:0300E10003F45EC7
:0300E20003F48C98
:0300E30003F4EE35
:0300E40003F4B969
:0300E50003F51010
:0300E60003F4E63A
:0300E70003F549D5
:0300E80003F574A9
:0300E90003F569B3
:0300EA0003F5B368
:0300EB0003F5C852
:0300EC0003F5E435
:0300ED0003F5F424
:0300EE0003F631E5
:0300EF0003F640D5
:0300F00003F67D97
:0300F10003F67A99
:0300F20003F68092
:0300F30003F6C849
:0300F40003F6EC24
:0300F50003F717F7
:0300F60003F722EB
:0300F70003F6F815
:0300F80003F73DCE
:0300F90003F77298
:0300FA0003F77990
:0300FB0003F7AE5A
:0300FC0003F79D6A
:0300FD0003F7D531
:0300FE0003F7E025
:0300FF0003F7F410
:00000001ff
