:020000040000FA
:03000000020000FB
:0300010001FE01FC
:0300020001FC07F7
:0300030001FA11EE
:0300040001F81FE1
:0300050001F631D0
:0300060001F446BC
:0300070001F25FA4
:0300080001F07C88
:0300090001EE9C69
:03000A0001ECC046
:03000B0001EAE81F
:03000C0001E913F4
:03000D0001E741C7
:03000E0001E57396
:03000F0001E3A961
:0300100001E1E12A
:0300110001E01EED
:0300120001DE5DAF
:0300130001DCA06D
:0300140001DAE628
:0300150001D92FDF
:0300160001D77B94
:0300170001D5CA46
:0300180001D41DF3
:0300190001D2729F
:03001A0001D0CB47
:03001B0001CF26EC
:03001C0001CD858E
:03001D0001CBE62E
:03001E0001CA4BC9
:03001F0001C8B263
:0300200001C71CF9
:0300210001C5898D
:0300220001C3F81F
:0300230001C26BAC
:0300240001C0E038
:0300250001BF58C0
:0300260001BDD247
:0300270001BC4FCA
:0300280001BACF4B
:0300290001B951C9
:03002A0001B7D645
:03002B0001B65EBD
:03002C0001B4E834
:03002D0001B374A8
:03002E0001B20319
:03002F0001B09489
:0300300001AF28F5
:0300310001ADBE60
:0300320001AC57C7
:0300330001AAF12E
:0300340001A98E91
:0300350001A82EF1
:0300360001A6D050
:0300370001A574AC
:0300380001A41A06
:0300390001A2C25F
:03003A0001A16DB4
:03003B0001A01A07
:03003C00019EC85A
:03003D00019D79A9
:03003E00019C2DF5
:03003F00019AE241
:030040000199998A
:03004100019852D1
:0300420001970E15
:030043000195CB59
:0300440001948B99
:0300450001934CD8
:0300460001920F15
:030047000190D451
:03004800018F9C89
:03004900018E65C0
:03004A00018D30F5
:03004B00018BFC2A
:03004C00018ACB5B
:03004D0001899C8A
:03004E0001886EB8
:03004F00018742E4
:030050000186180E
:030051000184F037
:030052000183C95E
:030053000182A483
:03005400018181A6
:03005500018060C7
:03005600017F40E7
:03005700017E2205
:03005800017D0522
:03005900017BEB3D
:03005A00017AD256
:03005B000179BA6E
:03005C000178A484
:03005D0001779098
:03005E0001767DAB
:03005F0001756CBC
:0300600001745DCB
:0300610001734FD9
:03006200017242E6
:03006300017137F1
:0300640001702EFA
:03006500016F2602
:03006600016E1F09
:03006700016D1A0E
:03006800016C1612
:03006900016B1414
:03006A00016A1315
:03006B0001691414
:03006C0001681612
:03006D000167190F
:03006E0001661E0A
:03006F0001652404
:0300700001642CFC
:03007100016335F3
:0300720001623FE9
:0300730001614BDD
:03007400016058D0
:03007500015F66C2
:03007600015E75B3
:03007700015D86A2
:03007800015C9890
:03007900015BAB7D
:03007A00015AC068
:03007B000159D652
:03007C000158ED3B
:03007D0001580522
:03007E0001571E09
:03007F00015639EE
:03008000015555D2
:03008100015472B5
:0300820001539097
:030083000152AF78
:030084000151D057
:030085000150F235
:0300860001501511
:03008700014F38EE
:03008800014E5EC8
:03008900014D84A2
:03008A00014CAB7B
:03008B00014BD353
:03008C00014AFD29
:03008D00014A27FE
:03008E00014953D2
:03008F00014880A5
:030090000147AE77
:030091000146DC49
:0300920001460C18
:0300930001453DE7
:0300940001446FB5
:030095000143A282
:030096000142D64E
:0300970001420B18
:03009800014141E2
:03009900014078AB
:03009A00013FB073
:03009B00013EE83B
:03009C00013E2200
:03009D00013D5DC5
:03009E00013C9989
:03009F00013BD64C
:0300A000013B130E
:0300A100013A52CF
:0300A20001399190
:0300A3000138D24F
:0300A4000138130D
:0300A500013755CB
:0300A60001369888
:0300A7000135DC44
:0300A800013521FE
:0300A900013467B8
:0300AA000133AE71
:0300AB000132F52A
:0300AC0001323EE0
:0300AD0001318797
:0300AE000130D14D
:0300AF0001301C01
:0300B000012F68B5
:0300B100012EB469
:0300B200012E021A
:0300B300012D50CC
:0300B400012C9F7D
:0300B500012BEF2D
:0300B600012B40DB
:0300B700012A918A
:0300B8000129E437
:0300B900012937E3
:0300BA0001288B8F
:0300BB000127DF3B
:0300BC00012735E4
:0300BD0001268B8E
:0300BE000125E237
:0300BF00012539DF
:0300C00001249286
:0300C1000123EB2D
:0300C200012345D2
:0300C3000122A077
:0300C4000121FB1C
:0300C500012157BF
:0300C6000120B462
:0300C70001201203
:0300C800011F70A5
:0300C900011ECF46
:0300CA00011E2EE6
:0300CB00011D8F85
:0300CC00011CF024
:0300CD00011C52C1
:0300CE00011BB45F
:0300CF00011B17FB
:0300D000011A7B97
:0300D1000119E032
:0300D200011945CC
:0300D3000118AB66
:0300D400011811FF
:0300D50001177898
:0300D6000116E030
:0300D700011648C7
:0300D8000115B15E
:0300D90001151BF3
:0300DA0001148589
:0300DB000113F01E
:0300DC0001135CB1
:0300DD000112C845
:0300DE00011235D7
:0300DF000111A369
:0300E000011111FA
:0300E10001107F8C
:0300E200010FEF1C
:0300E300010F5EAC
:0300E400010ECF3B
:0300E500010E40C9
:0300E600010DB257
:0300E700010D24E4
:0300E800010C9771
:0300E900010C0AFD
:0300EA00010B7E89
:0300EB00010AF215
:0300EC00010A689E
:0300ED000109DD29
:0300EE00010953B2
:0300EF000108CA3B
:0300F000010842C2
:0300F1000107B94B
:0300F200010732D1
:0300F3000106AB58
:0300F400010624DE
:0300F50001059E64
:0300F600010519E8
:0300F7000104946D
:0300F800010410F0
:0300F90001038C74
:0300FA00010309F6
:0300FB0001028679
:0300FC00010204FA
:0300FD000101827C
:0300FE00010101FC
:0300FF000100807D
:00000001ff
