:020000040000FA
:020000000200FC
:020001000203F8
:020002000207F3
:02000300020BEE
:02000400020FE9
:020005000213E4
:020006000217DF
:02000700021ADB
:02000800021ED6
:020009000222D1
:02000A000225CD
:02000B000229C8
:02000C00022CC4
:02000D000230BF
:02000E000233BB
:02000F000237B6
:02001000023AB2
:02001100023DAE
:020012000241A9
:020013000244A5
:020014000247A1
:02001500024A9D
:02001600024D99
:02001700025095
:02001800025490
:0200190002578C
:02001A00025A88
:02001B00025D84
:02001C00025F81
:02001D0002627D
:02001E00026579
:02001F00026875
:02002000026B71
:02002100026E6D
:02002200027169
:02002300027366
:02002400027662
:0200250002795E
:02002600027B5B
:02002700027E57
:02002800028153
:02002900028350
:02002A0002864C
:02002B00028849
:02002C00028B45
:02002D00028D42
:02002E0002903E
:02002F0002923B
:02003000029438
:02003100029734
:02003200029931
:02003300029B2E
:02003400029E2A
:0200350002A027
:0200360002A224
:0200370002A520
:0200380002A71D
:0200390002A91A
:02003A0002AB17
:02003B0002AD14
:02003C0002AF11
:02003D0002B20D
:02003E0002B40A
:02003F0002B607
:0200400002B804
:0200410002BA01
:0200420002BCFE
:0200430002BEFB
:0200440002C0F8
:0200450002C2F5
:0200460002C4F2
:0200470002C6EF
:0200480002C8EC
:0200490002CAE9
:02004A0002CBE7
:02004B0002CDE4
:02004C0002CFE1
:02004D0002D1DE
:02004E0002D3DB
:02004F0002D5D8
:0200500002D6D6
:0200510002D8D3
:0200520002DAD0
:0200530002DCCD
:0200540002DDCB
:0200550002DFC8
:0200560002E1C5
:0200570002E2C3
:0200580002E4C0
:0200590002E6BD
:02005A0002E7BB
:02005B0002E9B8
:02005C0002EAB6
:02005D0002ECB3
:02005E0002EEB0
:02005F0002EFAE
:0200600002F1AB
:0200610002F2A9
:0200620002F4A6
:0200630002F5A4
:0200640002F7A1
:0200650002F89F
:0200660002FA9C
:0200670002FB9A
:0200680002FD97
:0200690002FE95
:02006A0002FF93
:02006B0003018F
:02006C0003028D
:02006D0003048A
:02006E00030588
:02006F00030686
:02007000030883
:02007100030981
:02007200030A7F
:02007300030C7C
:02007400030D7A
:02007500030E78
:02007600031075
:02007700031173
:02007800031271
:0200790003136F
:02007A0003156C
:02007B0003166A
:02007C00031768
:02007D00031866
:02007E00031A63
:02007F00031B61
:02008000031C5F
:02008100031D5D
:02008200031E5B
:02008300031F59
:02008400032156
:02008500032254
:02008600032352
:02008700032450
:0200880003254E
:0200890003264C
:02008A0003274A
:02008B00032848
:02008C00032A45
:02008D00032B43
:02008E00032C41
:02008F00032D3F
:02009000032E3D
:02009100032F3B
:02009200033039
:02009300033137
:02009400033235
:02009500033333
:02009600033431
:0200970003352F
:0200980003362D
:0200990003372B
:02009A00033829
:02009B00033927
:02009C00033A25
:02009D00033B23
:02009E00033C21
:02009F00033D1F
:0200A000033E1D
:0200A100033F1B
:0200A200033F1A
:0200A300034018
:0200A400034116
:0200A500034214
:0200A600034312
:0200A700034410
:0200A80003450E
:0200A90003460C
:0200AA0003470A
:0200AB00034709
:0200AC00034807
:0200AD00034905
:0200AE00034A03
:0200AF00034B01
:0200B000034CFF
:0200B100034DFD
:0200B200034DFC
:0200B300034EFA
:0200B400034FF8
:0200B5000350F6
:0200B6000351F4
:0200B7000351F3
:0200B8000352F1
:0200B9000353EF
:0200BA000354ED
:0200BB000355EB
:0200BC000355EA
:0200BD000356E8
:0200BE000357E6
:0200BF000358E4
:0200C0000358E3
:0200C1000359E1
:0200C200035ADF
:0200C300035BDD
:0200C400035BDC
:0200C500035CDA
:0200C600035DD8
:0200C700035DD7
:0200C800035ED5
:0200C900035FD3
:0200CA000360D1
:0200CB000360D0
:0200CC000361CE
:0200CD000362CC
:0200CE000362CB
:0200CF000363C9
:0200D0000364C7
:0200D1000364C6
:0200D2000365C4
:0200D3000366C2
:0200D4000366C1
:0200D5000367BF
:0200D6000368BD
:0200D7000368BC
:0200D8000369BA
:0200D900036AB8
:0200DA00036AB7
:0200DB00036BB5
:0200DC00036BB4
:0200DD00036CB2
:0200DE00036DB0
:0200DF00036DAF
:0200E000036EAD
:0200E100036EAC
:0200E200036FAA
:0200E3000370A8
:0200E4000370A7
:0200E5000371A5
:0200E6000371A4
:0200E7000372A2
:0200E8000373A0
:0200E90003739F
:0200EA0003749D
:0200EB0003749C
:0200EC0003759A
:0200ED00037599
:0200EE00037697
:0200EF00037795
:0200F000037794
:0200F100037892
:0200F200037891
:0200F30003798F
:0200F40003798E
:0200F500037A8C
:0200F600037A8B
:0200F700037B89
:0200F800037B88
:0200F900037C86
:0200FA00037C85
:0200FB00037D83
:0200FC00037D82
:0200FD00037E80
:0200FE00037E7F
:0200FF00037F7D
:00000001ff
