:020000040000FA
:0100000003FC
:0100010003FB
:0100020002FB
:0100030002FA
:0100040002F9
:0100050002F8
:0100060002F7
:0100070002F6
:0100080002F5
:0100090002F4
:01000A0002F3
:01000B0002F2
:01000C0002F1
:01000D0002F0
:01000E0002EF
:01000F0002EE
:0100100002ED
:0100110002EC
:0100120002EB
:0100130002EA
:0100140002E9
:0100150002E8
:0100160002E7
:0100170002E6
:0100180002E5
:0100190002E4
:01001A0002E3
:01001B0001E3
:01001C0001E2
:01001D0001E1
:01001E0001E0
:01001F0001DF
:0100200001DE
:0100210001DD
:0100220001DC
:0100230001DB
:0100240001DA
:0100250001D9
:0100260001D8
:0100270001D7
:0100280001D6
:0100290001D5
:01002A0001D4
:01002B0001D3
:01002C0001D2
:01002D0001D1
:01002E0001D0
:01002F0001CF
:0100300001CE
:0100310001CD
:0100320001CC
:0100330001CB
:0100340001CA
:0100350001C9
:0100360001C8
:0100370001C7
:0100380001C6
:0100390001C5
:01003A0001C4
:01003B0001C3
:01003C0001C2
:01003D0001C1
:01003E0001C0
:01003F0001BF
:0100400001BE
:0100410001BD
:0100420001BC
:0100430001BB
:0100440001BA
:0100450001B9
:0100460001B8
:0100470001B7
:0100480001B6
:0100490001B5
:01004A0000B5
:01004B0000B4
:01004C0000B3
:01004D0000B2
:01004E0000B1
:01004F0000B0
:0100500000AF
:0100510000AE
:0100520000AD
:0100530000AC
:0100540000AB
:0100550000AA
:0100560000A9
:0100570000A8
:0100580000A7
:0100590000A6
:01005A0000A5
:01005B0000A4
:01005C0000A3
:01005D0000A2
:01005E0000A1
:01005F0000A0
:01006000009F
:01006100009E
:01006200009D
:01006300009C
:01006400009B
:01006500009A
:010066000099
:010067000098
:010068000097
:010069000096
:01006A000095
:01006B000094
:01006C000093
:01006D000092
:01006E000091
:01006F000090
:01007000008F
:01007100008E
:01007200008D
:01007300008C
:01007400008B
:01007500008A
:010076000089
:010077000088
:010078000087
:010079000086
:01007A000085
:01007B000084
:01007C000083
:01007D000082
:01007E000081
:01007F000080
:01008000007F
:01008100007E
:01008200007D
:01008300007C
:01008400007B
:01008500007A
:010086000079
:010087000078
:010088000077
:010089000076
:01008A000075
:01008B000074
:01008C000073
:01008D000072
:01008E000071
:01008F000070
:01009000006F
:01009100006E
:01009200006D
:01009300006C
:01009400006B
:01009500006A
:010096000069
:010097000068
:010098000067
:010099000066
:01009A000065
:01009B000064
:01009C000063
:01009D000062
:01009E000061
:01009F000060
:0100A000005F
:0100A100005E
:0100A200005D
:0100A300005C
:0100A400005B
:0100A500005A
:0100A6000059
:0100A7000058
:0100A8000057
:0100A9000056
:0100AA000055
:0100AB000054
:0100AC000053
:0100AD000052
:0100AE000051
:0100AF000050
:0100B000004F
:0100B100004E
:0100B200004D
:0100B300004C
:0100B400004B
:0100B500004A
:0100B6000049
:0100B7000048
:0100B8000047
:0100B9000046
:0100BA000045
:0100BB000044
:0100BC000043
:0100BD000042
:0100BE000041
:0100BF000040
:0100C000003F
:0100C100003E
:0100C200003D
:0100C300003C
:0100C400003B
:0100C500003A
:0100C6000039
:0100C7000038
:0100C8000037
:0100C9000036
:0100CA000035
:0100CB000034
:0100CC000033
:0100CD000032
:0100CE000031
:0100CF000030
:0100D000002F
:0100D100002E
:0100D200002D
:0100D300002C
:0100D400002B
:0100D500002A
:0100D6000029
:0100D7000028
:0100D8000027
:0100D9000026
:0100DA000025
:0100DB000024
:0100DC000023
:0100DD000022
:0100DE000021
:0100DF000020
:0100E000001F
:0100E100001E
:0100E200001D
:0100E300001C
:0100E400001B
:0100E500001A
:0100E6000019
:0100E7000018
:0100E8000017
:0100E9000016
:0100EA000015
:0100EB000014
:0100EC000013
:0100ED000012
:0100EE000011
:0100EF000010
:0100F000000F
:0100F100000E
:0100F200000D
:0100F300000C
:0100F400000B
:0100F500000A
:0100F6000009
:0100F7000008
:0100F8000007
:0100F9000006
:0100FA000005
:0100FB000004
:0100FC000003
:0100FD000002
:0100FE000001
:0100FF000000
:0101000004FA
:0101010004F9
:0101020004F8
:0101030004F7
:0101040004F6
:0101050004F5
:0101060003F5
:0101070003F4
:0101080003F3
:0101090003F2
:01010A0003F1
:01010B0003F0
:01010C0003EF
:01010D0003EE
:01010E0003ED
:01010F0003EC
:0101100003EB
:0101110003EA
:0101120003E9
:0101130003E8
:0101140003E7
:0101150003E6
:0101160003E5
:0101170002E5
:0101180002E4
:0101190002E3
:01011A0002E2
:01011B0002E1
:01011C0002E0
:01011D0002DF
:01011E0002DE
:01011F0002DD
:0101200002DC
:0101210002DB
:0101220002DA
:0101230002D9
:0101240002D8
:0101250002D7
:0101260002D6
:0101270002D5
:0101280002D4
:0101290002D3
:01012A0002D2
:01012B0002D1
:01012C0002D0
:01012D0002CF
:01012E0002CE
:01012F0002CD
:0101300002CC
:0101310001CC
:0101320001CB
:0101330001CA
:0101340001C9
:0101350001C8
:0101360001C7
:0101370001C6
:0101380001C5
:0101390001C4
:01013A0001C3
:01013B0001C2
:01013C0001C1
:01013D0001C0
:01013E0001BF
:01013F0001BE
:0101400001BD
:0101410001BC
:0101420001BB
:0101430001BA
:0101440001B9
:0101450001B8
:0101460001B7
:0101470001B6
:0101480001B5
:0101490001B4
:01014A0001B3
:01014B0001B2
:01014C0001B1
:01014D0001B0
:01014E0001AF
:01014F0001AE
:0101500001AD
:0101510001AC
:0101520001AB
:0101530001AA
:0101540001A9
:0101550001A8
:0101560001A7
:0101570001A6
:0101580001A5
:0101590001A4
:01015A0001A3
:01015B0001A2
:01015C0001A1
:01015D0001A0
:01015E00019F
:01015F00019E
:01016000019D
:01016100019C
:01016200019B
:01016300019A
:01016400009A
:010165000099
:010166000098
:010167000097
:010168000096
:010169000095
:01016A000094
:01016B000093
:01016C000092
:01016D000091
:01016E000090
:01016F00008F
:01017000008E
:01017100008D
:01017200008C
:01017300008B
:01017400008A
:010175000089
:010176000088
:010177000087
:010178000086
:010179000085
:01017A000084
:01017B000083
:01017C000082
:01017D000081
:01017E000080
:01017F00007F
:01018000007E
:01018100007D
:01018200007C
:01018300007B
:01018400007A
:010185000079
:010186000078
:010187000077
:010188000076
:010189000075
:01018A000074
:01018B000073
:01018C000072
:01018D000071
:01018E000070
:01018F00006F
:01019000006E
:01019100006D
:01019200006C
:01019300006B
:01019400006A
:010195000069
:010196000068
:010197000067
:010198000066
:010199000065
:01019A000064
:01019B000063
:01019C000062
:01019D000061
:01019E000060
:01019F00005F
:0101A000005E
:0101A100005D
:0101A200005C
:0101A300005B
:0101A400005A
:0101A5000059
:0101A6000058
:0101A7000057
:0101A8000056
:0101A9000055
:0101AA000054
:0101AB000053
:0101AC000052
:0101AD000051
:0101AE000050
:0101AF00004F
:0101B000004E
:0101B100004D
:0101B200004C
:0101B300004B
:0101B400004A
:0101B5000049
:0101B6000048
:0101B7000047
:0101B8000046
:0101B9000045
:0101BA000044
:0101BB000043
:0101BC000042
:0101BD000041
:0101BE000040
:0101BF00003F
:0101C000003E
:0101C100003D
:0101C200003C
:0101C300003B
:0101C400003A
:0101C5000039
:0101C6000038
:0101C7000037
:0101C8000036
:0101C9000035
:0101CA000034
:0101CB000033
:0101CC000032
:0101CD000031
:0101CE000030
:0101CF00002F
:0101D000002E
:0101D100002D
:0101D200002C
:0101D300002B
:0101D400002A
:0101D5000029
:0101D6000028
:0101D7000027
:0101D8000026
:0101D9000025
:0101DA000024
:0101DB000023
:0101DC000022
:0101DD000021
:0101DE000020
:0101DF00001F
:0101E000001E
:0101E100001D
:0101E200001C
:0101E300001B
:0101E400001A
:0101E5000019
:0101E6000018
:0101E7000017
:0101E8000016
:0101E9000015
:0101EA000014
:0101EB000013
:0101EC000012
:0101ED000011
:0101EE000010
:0101EF00000F
:0101F000000E
:0101F100000D
:0101F200000C
:0101F300000B
:0101F400000A
:0101F5000009
:0101F6000008
:0101F7000007
:0101F8000006
:0101F9000005
:0101FA000004
:0101FB000003
:0101FC000002
:0101FD000001
:0101FE000000
:0101FF0000FF
:00000001ff
