:020000040000FA
:0300000007D866B8
:03000100004A12A0
:0300020008A6D27B
:0300030000EEEC20
:030004000922A925
:0300050001424E67
:03000600094E2080
:030007000146624D
:03000800092B576A
:0300090000FD3FB8
:03000A0008BC5CD3
:03000B000068EB9F
:03000C0008032CBA
:03000D000F8B5AFC
:03000E000701B136
:03000F000E666E0C
:0300100005B9C966
:030011000CFBFCE9
:03001200042D3E7C
:030013000B4DC7CB
:03001400025DCDBD
:03001500095D86FC
:03001600004D2575
:03001700072CDFD4
:030018000DFCE7F5
:0300190004BD6DB6
:03001A000B6EA5C5
:03001B000210BD13
:03001C0008A3E650
:03001D000F284F5A
:03001E00059E2517
:03001F000C059736
:03002000025ED0AD
:0300210008A9FE2D
:030022000EE74B9B
:030023000516E1DE
:030024000B38EDA9
:03002500014D95F5
:0300260007550477
:030027000D4F6119
:03002800033CD4C2
:03002900091D842A
:03002A000EF1973D
:03002B0004B933E2
:03002C000A747DD6
:03002D0000239A13
:03002E0005C6AE56
:03002F000B5DDC8A
:0300300000E9489C
:030031000669134A
:030032000BDD6182
:0300330001465231
:0300340006A40817
:030035000BF6A324
:03003600013E4345
:03003700067B073E
:030038000BAD10FD
:0300390000D47B75
:03003A0005F16766
:03003B000B03F2C2
:03003C00000C397C
:03003D00050A5958
:03003E0009FE6F49
:03003F000EE89731
:0300400003C8EC06
:03004100089F8A8B
:030042000D6C8DB5
:0300430002300E7A
:0300440006EA28A1
:030045000B9AF51E
:0300460000428EE7
:0300470004E10DC4
:0300480009768AAC
:030049000E031F84
:03004A000286E249
:03004B000701EDBD
:03004C000B7456DC
:03004D000FDE348F
:03004E00043FA0CC
:03004F000898AE60
:030050000CE97642
:0300510001320E6B
:0300520005728AAA
:0300530009AB01F5
:030054000DDB8839
:030055000204336F
:0300560006251864
:030057000A3E4A14
:030058000E4FDD6B
:030059000259E564
:03005A00065C76CB
:03005B000A57A49D
:03005C000E4B80C8
:03005D0002381E48
:03005E00061D90EC
:03005F0009FBE9B1
:030060000DD33A83
:0300610001A39662
:03006200056D0E1B
:03006300092FB4AE
:030064000CEB980A
:0300650000A0CB2D
:03006600044F5FE5
:0300670007F76434
:030068000B98EA08
:030069000F340150
:03006A0002C8B910
:03006B0006572213
:03006C0009DF4C5D
:03006D000D6145DD
:03006E0000DD1D95
:03006F000452E355
:0300700007C2A51F
:030071000B2C73E2
:030072000E905A93
:0300730001EE6932
:030074000546AE90
:03007500089937B0
:030076000BE61185
:030077000F2D4A00
:03007800026EF025
:0300790005AB0FC5
:03007A0008E1B6E4
:03007B000C12F074
:03007C000F3ECA6A
:03007D00026552C7
:03007E0005869361
:03007F0008A29A3A
:030080000BB97445
:030081000ECB2C77
:0300820001D7CDD6
:0300830004DF6532
:0300840007E1FE93
:030085000ADFA4EB
:030086000DD8632F
:0300870000CC4565
:0300880003BB5562
:0300890006A5A029
:03008A00098B2FB0
:03008B000C6C0DED
:03008C000F4845D5
:03008D00021FE16E
:03008E0004F2EC8D
:03008F0007C17036
:030090000A8B7860
:030091000D510C02
:0300920000123722
:0300930002CF0396
:0300940005877A63
:03009500083BA481
:030096000AEB8DE5
:030097000D973C86
:03009800003EBB6C
:0300990002E2146C
:03009A0005814F8E
:03009B00081C76C8
:03009C000AB39113
:03009D000D46A964
:03009E000FD5C7B4
:03009F000260F309
:0300A00004E8363B
:0300A100076B9852
:0300A20009EB2146
:0300A3000C66DA0E
:0300A4000EDECCA1
:0300A5000152FD08
:0300A60003C3751C
:0300A70006303EE2
:0300A80008995E56
:0300A9000AFEDD6F
:0300AA000D60C422
:0300AB000FBF186C
:0300AC000219E353
:0300AD0004712BB0
:0300AE0006C4F78E
:0300AF0009154FE1
:0300B0000B623AA6
:0300B1000DABBFD5
:0300B2000FF1E566
:0300B3000234B361
:0300B400047430A1
:0300B50006B0632F
:0300B60008E95204
:0300B7000B1F0418
:0300B8000D518067
:0300B9000F80CCE9
:0300BA0001ACEFA7
:0300BB0003D5EE7C
:0300BC0005FBD170
:0300BD00081E9D7D
:0300BE000A3E5A9D
:0300BF000C5B0CCB
:0300C0000E74BA01
:0300C100008B6A47
:0300C200029F2377
:0300C30004AFE99E
:0300C40006BDC3B3
:0300C50008C8B6B2
:0300C6000AD0C895
:0300C7000CD60054
:0300C8000ED861EE
:0300C90000D7F36A
:0300CA0002D4BBA2
:0300CB0004CEBDA3
:0300CC0006C60065
:0300CD0008BA88E6
:0300CE000AAC5C1D
:0300CF000C9B8007
:0300D0000E87F99F
:0300D1000071CCEF
:0300D200025900D0
:0300D300043D9851
:0300D400061F996B
:0300D50007FF0A18
:0300D60009DBED56
:0300D7000BB6491C
:0300D8000D8E2367
:0300D9000F637E34
:0300DA0001365F8D
:0300DB000306CC4D
:0300DC0004D4C980
:0300DD0006A05B1F
:0300DE0008698529
:0300DF000A304D97
:0300E0000BF4B767
:0300E1000DB6C792
:0300E2000F768214
:0300E3000133EBFB
:0300E40002EF091F
:0300E50004A7DD90
:0300E600065E6E45
:0300E7000812BF3D
:0300E80009C4D375
:0300E9000B74B0E5
:0300EA000D22598B
:0300EB000ECDD265
:0300EC000077207A
:0300ED00021E45AB
:0300EE0003C34702
:0300EF000566297A
:0300F0000706EE12
:0300F10008A59BC4
:0300F2000A42338C
:0300F3000BDCBB68
:0300F4000D753552
:0300F5000F0BA648
:0300F60000A01057
:0300F70002327959
:0300F80003C2E25E
:0300F9000551515D
:0300FA0006DDC858
:0300FB0008684A48
:0300FC0009F0DC2C
:0300FD000B7781FD
:0300FE000CFC3BBC
:0300FF000E7F0F62
:03010000000000FC
:030101000BF111EE
:0301020007C48AA5
:03010300037AD2AA
:030104000F144C89
:030105000A915C00
:0301060005F2629D
:030107000137BFFE
:030108000C61CFB8
:030109000770EF8D
:03010A0002657A11
:03010B000D3FC9DC
:03010C00080033B5
:03010D0002A70F37
:03010E000D34B1FC
:03010F0007A96DD0
:0301100002059451
:030111000C49781E
:0301120006756708
:030113000089AFB1
:030114000A869EBA
:03011500046C7EF9
:030116000E3B9A03
:0301170007F43BAF
:030118000196A9A4
:030119000B232A8B
:03011A00049A053F
:03011B000DFB7D5C
:03011C000747D6BC
:03011D00007F520E
:03011E0009A23300
:03011F0002B0B972
:030120000BAB2402
:030121000491B096
:030122000D649DCC
:030123000624258A
:030124000ED08674
:030125000769F86F
:030126000FF0B720
:030127000864F970
:0301280000C6F915
:030129000916ECC8
:03012A0001550874
:03012B00098184C3
:03012C00019C949F
:03012D0009A66BB5
:03012E00019F3DF1
:03012F0009873B02
:03013000015E99D4
:0301310009258518
:0301320000DC31BD
:030133000882CB74
:030134000019832C
:0301350007A08799
:030136000F18039C
:030137000680251A
:030138000DD919C5
:0301390005230A91
:03013A000C5E2236
:03013B00038A8DA7
:03013C000AA8739B
:03013D0001B7FE09
:03013E0008B956A7
:03013F000FACA260
:0301400006920B19
:030141000D69B78E
:030142000433CCB7
:030143000AF0704F
:03014400019FC751
:030145000841F876
:030146000ED724AD
:03014700055F72DF
:030148000BDB02CC
:030149000249F96F
:03014A0008AC7886
:03014B000F02A2FE
:03014C00054C96C9
:03014D000B8A77A3
:03014E0001BC648D
:03014F0007E27D47
:030150000DFCE3C0
:03015100040BB3E9
:030152000A0F0D84
:0301530000071092
:0301540005F3D8D8
:030155000BD58344
:0301560001AC2FCA
:030157000777F82F
:030158000D38FB64
:0301590002EF535F
:03015A00089B1CE3
:03015B000E3C71E6
:03015C0003D36D5D
:03015D0009602B0B
:03015E000EE2C5E9
:03015F00045B55E9
:0301600009C9F5D5
:030161000F2EBCA2
:030162000489C647
:0301630009DB298C
:030164000F22FE69
:0301650004615ED4
:0301660009966097
:030167000EC21BAA
:0301680003E4A607
:0301690008FE1875
:03016A000E0E88EE
:03016B0003160C6C
:03016C000814BABA
:03016D000D0AA7D1
:03016E0001F7E9AD
:03016F0006DC9516
:030170000BB8C009
:03017100008C7E81
:030172000557E549
:030173000A1B075D
:030174000ED5FAAB
:030175000388D02C
:0301760008339DAE
:030177000CD6742F
:03017800017169A9
:0301790006048EEB
:03017A000A8FF4F5
:03017B000F13B0AF
:03017C00038FD31B
:03017D0008046E05
:03017E000C71936E
:03017F0000D75452
:030180000535C280
:03018100098CEEF8
:030182000DDCE9A8
:030183000225C38F
:0301840006678E7D
:030185000AA25873
:030186000ED6335F
:0301870003032E41
:03018800072959EB
:030189000B48C35D
:03018A000F617B87
:03018B0003739269
:03018C00077F16D4
:03018D000B8415CB
:03018E000F829F3E
:03018F00037AC12F
:03019000076C8B6E
:030191000B580AFE
:030192000F3D4CD2
:03019300031C60EA
:0301940006F5531A
:030195000AC83263
:030196000E950BB8
:03019700025BEB1D
:03019800061CE062
:0301990009D7F58E
:03019A000D8D398F
:03019B00013CB76D
:03019C0004E67DF9
:03019D00088A9736
:03019E000C291019
:03019F000FC1F598
:0301A000035553B1
:0301A10006E3343E
:0301A2000A6BA63F
:0301A3000DEEB2AC
:0301A400016C6685
:0301A50004E4CBA4
:0301A6000857EE09
:0301A7000BC5DAAB
:0301A8000F2E997E
:0301A90002923788
:0301AA0005F0BE9F
:0301AB00094A39C5
:0301AC000C9EB3F3
:0301AD000FEE351D
:0301AE000338CB48
:0301AF00067E7F4A
:0301B00009BF5A2A
:0301B1000CFB67DD
:0301B2000032AF69
:0301B30003653DA4
:0301B40006931A95
:0301B50009BC5032
:0301B6000CE0E872
:0301B7000000EC59
:0301B800031C65C0
:0301B90006335CAE
:0301BA000945DA1A
:0301BB000C53E9F9
:0301BC000F5D9143
:0301BD000262DB00
:0301BE000563D006
:0301BF000860795C
:0301C0000B58DFFA
:0301C1000E4D08D8
:0301C200013D00FC
:0301C3000428CC41
:0301C400071076AB
:0301C50009F40733
:0301C6000CD385D2
:0301C7000FAEF97F
:0301C80002866B41
:0301C9000559E3F2
:0301CA0008296998
:0301CB000AF5042E
:0301CC000DBCBCAB
:0301CD0000809817
:0301CE000340A14A
:0301CF0005FCDC50
:0301D00008B5531C
:0301D1000B6A0BAB
:0301D2000E1B0CF5
:0301D30000C85E03
:0301D400037207AC
:0301D50006180EFB
:0301D60008BA7AEA
:0301D7000B59536E
:0301D8000DF49E85
:0301D900008C6334
:0301DA000320A956
:0301DB0005B175F6
:0301DC00083ECE0C
:0301DD000AC8BC91
:0301DE000D4F437F
:0301DF000FD26BD1
:0301E00002523A8E
:0301E10004CEB792
:0301E2000747E6E6
:0301E30009BDCF84
:0301E4000C307864
:0301E5000E9FE585
:0301E600010C1FEA
:0301E70003752A73
:0301E80005DB0C28
:0301E900083DCA04
:0301EA000A9D6CFF
:0301EB000CF9F616
:0301EC000F536E40
:0301ED0001A9D98C
:0301EE0003FD3ED0
:0301EF00064DA119
:0301F000089B0960
:0301F1000AE579A3
:0301F2000D2CF9D8
:0301F3000F718CFD
:0301F40001B3391B
:0301F50003F2040E
:0301F600062DF2E1
:0301F70008670A8C
:0301F8000A9D4F0E
:0301F9000CD0C661
:0301FA000F01757D
:0301FB00012F6170
:0301FC00035A8F14
:0301FD0005830275
:0301FE0007A8C18E
:0301FF0009CBD059
:00000001ff
