:020000040000FA
:0200000018EDF9
:020001001906DE
:02000200191EC5
:020003001936AC
:02000400194D94
:0200050019647C
:02000600197A65
:0200070019904E
:0200080019A637
:0200090019BC20
:02000A0019D10A
:02000B0019E5F5
:02000C0019F9E0
:02000D001A0DCA
:02000E001A21B5
:02000F001A34A1
:020010001A478D
:020011001A5A79
:020012001A6C66
:020013001A7F52
:020014001A9040
:020015001AA22D
:020016001AB31B
:020017001AC409
:020018001AD5F7
:020019001AE5E6
:02001A001AF5D5
:02001B001B05C3
:02001C001B15B2
:02001D001B24A2
:02001E001B3392
:02001F001B4282
:020020001B5172
:020021001B5F63
:020022001B6E53
:020023001B7C44
:020024001B8936
:020025001B9727
:020026001BA419
:020027001BB10B
:020028001BBEFD
:020029001BCBEF
:02002A001BD8E1
:02002B001BE4D4
:02002C001BF0C7
:02002D001BFCBA
:02002E001C08AC
:02002F001C149F
:020030001C2092
:020031001C2B86
:020032001C367A
:020033001C416E
:020034001C4C62
:020035001C5756
:020036001C614B
:020037001C6B40
:020038001C7634
:020039001C8029
:02003A001C8A1E
:02003B001C9413
:02003C001C9D09
:02003D001CA7FE
:02003E001CB0F4
:02003F001CB9EA
:020040001CC3DF
:020041001CCCD5
:020042001CD4CC
:020043001CDDC2
:020044001CE6B8
:020045001CEEAF
:020046001CF7A5
:020047001CFF9C
:020048001D0792
:020049001D0F89
:02004A001D1780
:02004B001D1F77
:02004C001D276E
:02004D001D2E66
:02004E001D365D
:02004F001D3D55
:020050001D454C
:020051001D4C44
:020052001D533C
:020053001D5A34
:020054001D612C
:020055001D6824
:020056001D6F1C
:020057001D7515
:020058001D7C0D
:020059001D8206
:02005A001D89FE
:02005B001D8FF7
:02005C001D95F0
:02005D001D9CE8
:02005E001DA2E1
:02005F001DA8DA
:020060001DAED3
:020061001DB4CC
:020062001DB9C6
:020063001DBFBF
:020064001DC5B8
:020065001DCAB2
:020066001DD0AB
:020067001DD5A5
:020068001DDB9E
:020069001DE098
:02006A001DE592
:02006B001DEA8C
:02006C001DEF86
:02006D001DF480
:02006E001DF97A
:02006F001DFE74
:020070001E036D
:020071001E0867
:020072001E0D61
:020073001E115C
:020074001E1656
:020075001E1B50
:020076001E1F4B
:020077001E2445
:020078001E2840
:020079001E2C3B
:02007A001E3135
:02007B001E3530
:02007C001E392B
:02007D001E3D26
:02007E001E4121
:02007F001E461B
:020080001E4A16
:020081001E4E11
:020082001E510D
:020083001E5508
:020084001E5903
:020085001E5DFE
:020086001E61F9
:020087001E64F5
:020088001E68F0
:020089001E6CEB
:02008A001E6FE7
:02008B001E73E2
:02008C001E76DE
:02008D001E7AD9
:02008E001E7DD5
:02008F001E81D0
:020090001E84CC
:020091001E87C8
:020092001E8AC4
:020093001E8EBF
:020094001E91BB
:020095001E94B7
:020096001E97B3
:020097001E9AAF
:020098001E9DAB
:020099001EA0A7
:02009A001EA3A3
:02009B001EA69F
:02009C001EA99B
:02009D001EAC97
:02009E001EAF93
:02009F001EB28F
:0200A0001EB58B
:0200A1001EB788
:0200A2001EBA84
:0200A3001EBD80
:0200A4001EBF7D
:0200A5001EC279
:0200A6001EC575
:0200A7001EC772
:0200A8001ECA6E
:0200A9001ECC6B
:0200AA001ECF67
:0200AB001ED164
:0200AC001ED460
:0200AD001ED65D
:0200AE001ED959
:0200AF001EDB56
:0200B0001EDE52
:0200B1001EE04F
:0200B2001EE24C
:0200B3001EE449
:0200B4001EE745
:0200B5001EE942
:0200B6001EEB3F
:0200B7001EED3C
:0200B8001EF038
:0200B9001EF235
:0200BA001EF432
:0200BB001EF62F
:0200BC001EF82C
:0200BD001EFA29
:0200BE001EFC26
:0200BF001EFE23
:0200C0001F001F
:0200C1001F021C
:0200C2001F0419
:0200C3001F0616
:0200C4001F0813
:0200C5001F0A10
:0200C6001F0C0D
:0200C7001F0E0A
:0200C8001F1007
:0200C9001F1105
:0200CA001F1302
:0200CB001F15FF
:0200CC001F17FC
:0200CD001F19F9
:0200CE001F1AF7
:0200CF001F1CF4
:0200D0001F1EF1
:0200D1001F1FEF
:0200D2001F21EC
:0200D3001F23E9
:0200D4001F24E7
:0200D5001F26E4
:0200D6001F28E1
:0200D7001F29DF
:0200D8001F2BDC
:0200D9001F2CDA
:0200DA001F2ED7
:0200DB001F2FD5
:0200DC001F31D2
:0200DD001F33CF
:0200DE001F34CD
:0200DF001F35CB
:0200E0001F37C8
:0200E1001F38C6
:0200E2001F3AC3
:0200E3001F3BC1
:0200E4001F3DBE
:0200E5001F3EBC
:0200E6001F3FBA
:0200E7001F41B7
:0200E8001F42B5
:0200E9001F44B2
:0200EA001F45B0
:0200EB001F46AE
:0200EC001F48AB
:0200ED001F49A9
:0200EE001F4AA7
:0200EF001F4BA5
:0200F0001F4DA2
:0200F1001F4EA0
:0200F2001F4F9E
:0200F3001F509C
:0200F4001F5299
:0200F5001F5397
:0200F6001F5495
:0200F7001F5593
:0200F8001F5691
:0200F9001F588E
:0200FA001F598C
:0200FB001F5A8A
:0200FC001F5B88
:0200FD001F5C86
:0200FE001F5D84
:0200FF001F5E82
:020100001600E7
:020101001622C4
:020102001644A1
:0201030016667E
:0201040016875C
:0201050016A73B
:0201060016C71A
:0201070016E6FA
:020108001705D9
:020109001723BA
:02010A0017419B
:02010B00175E7D
:02010C00177B5F
:02010D00179742
:02010E0017B325
:02010F0017CE09
:0201100017E9ED
:020111001803D1
:02011200181DB6
:0201130018379B
:02011400185081
:02011500186967
:0201160018814E
:02011700189935
:0201180018B11C
:0201190018C804
:02011A0018DFEC
:02011B0018F5D5
:02011C00190BBD
:02011D001921A6
:02011E0019378F
:02011F00194C79
:02012000196064
:0201210019754E
:02012200198939
:02012300199D24
:0201240019B010
:0201250019C3FC
:0201260019D6E8
:0201270019E9D4
:0201280019FBC1
:020129001A0DAD
:02012A001A1F9A
:02012B001A3187
:02012C001A4275
:02012D001A5363
:02012E001A6451
:02012F001A7440
:020130001A852E
:020131001A951D
:020132001AA40D
:020133001AB4FC
:020134001AC3EC
:020135001AD2DC
:020136001AE1CC
:020137001AF0BC
:020138001AFFAC
:020139001B0D9C
:02013A001B1B8D
:02013B001B297E
:02013C001B3670
:02013D001B4461
:02013E001B5153
:02013F001B5E45
:020140001B6B37
:020141001B7829
:020142001B841C
:020143001B910E
:020144001B9D01
:020145001BA9F4
:020146001BB5E7
:020147001BC1DA
:020148001BCCCE
:020149001BD8C1
:02014A001BE3B5
:02014B001BEEA9
:02014C001BF99D
:02014D001C0490
:02014E001C0E85
:02014F001C1979
:020150001C236E
:020151001C2D63
:020152001C3857
:020153001C414D
:020154001C4B42
:020155001C5537
:020156001C5F2C
:020157001C6822
:020158001C7118
:020159001C7B0D
:02015A001C8403
:02015B001C8DF9
:02015C001C95F0
:02015D001C9EE6
:02015E001CA7DC
:02015F001CAFD3
:020160001CB8C9
:020161001CC0C0
:020162001CC8B7
:020163001CD0AE
:020164001CD8A5
:020165001CE09C
:020166001CE893
:020167001CF08A
:020168001CF782
:020169001CFF79
:02016A001D0670
:02016B001D0D68
:02016C001D155F
:02016D001D1C57
:02016E001D234F
:02016F001D2A47
:020170001D313F
:020171001D3738
:020172001D3E30
:020173001D4528
:020174001D4B21
:020175001D5219
:020176001D5812
:020177001D5F0A
:020178001D6503
:020179001D6BFC
:02017A001D71F5
:02017B001D77EE
:02017C001D7DE7
:02017D001D83E0
:02017E001D89D9
:02017F001D8ED3
:020180001D94CC
:020181001D9AC5
:020182001D9FBF
:020183001DA5B8
:020184001DAAB2
:020185001DB0AB
:020186001DB5A5
:020187001DBA9F
:020188001DBF99
:020189001DC493
:02018A001DC98D
:02018B001DCE87
:02018C001DD381
:02018D001DD87B
:02018E001DDD75
:02018F001DE26F
:020190001DE769
:020191001DEB64
:020192001DF05E
:020193001DF459
:020194001DF953
:020195001DFD4E
:020196001E0247
:020197001E0642
:020198001E0B3C
:020199001E0F37
:02019A001E1332
:02019B001E172D
:02019C001E1B28
:02019D001E1F23
:02019E001E241D
:02019F001E2818
:0201A0001E2B14
:0201A1001E2F0F
:0201A2001E330A
:0201A3001E3705
:0201A4001E3B00
:0201A5001E3FFB
:0201A6001E42F7
:0201A7001E46F2
:0201A8001E4AED
:0201A9001E4DE9
:0201AA001E51E4
:0201AB001E54E0
:0201AC001E58DB
:0201AD001E5BD7
:0201AE001E5FD2
:0201AF001E62CE
:0201B0001E65CA
:0201B1001E69C5
:0201B2001E6CC1
:0201B3001E6FBD
:0201B4001E72B9
:0201B5001E76B4
:0201B6001E79B0
:0201B7001E7CAC
:0201B8001E7FA8
:0201B9001E82A4
:0201BA001E85A0
:0201BB001E889C
:0201BC001E8B98
:0201BD001E8E94
:0201BE001E9190
:0201BF001E948C
:0201C0001E9689
:0201C1001E9985
:0201C2001E9C81
:0201C3001E9F7D
:0201C4001EA17A
:0201C5001EA476
:0201C6001EA772
:0201C7001EA96F
:0201C8001EAC6B
:0201C9001EAF67
:0201CA001EB164
:0201CB001EB460
:0201CC001EB65D
:0201CD001EB959
:0201CE001EBB56
:0201CF001EBE52
:0201D0001EC04F
:0201D1001EC34B
:0201D2001EC548
:0201D3001EC745
:0201D4001ECA41
:0201D5001ECC3E
:0201D6001ECE3B
:0201D7001ED038
:0201D8001ED334
:0201D9001ED531
:0201DA001ED72E
:0201DB001ED92B
:0201DC001EDB28
:0201DD001EDE24
:0201DE001EE021
:0201DF001EE21E
:0201E0001EE41B
:0201E1001EE618
:0201E2001EE815
:0201E3001EEA12
:0201E4001EEC0F
:0201E5001EEE0C
:0201E6001EF009
:0201E7001EF206
:0201E8001EF403
:0201E9001EF600
:0201EA001EF8FD
:0201EB001EFAFA
:0201EC001EFBF8
:0201ED001EFDF5
:0201EE001EFFF2
:0201EF001F01EE
:0201F0001F03EB
:0201F1001F04E9
:0201F2001F06E6
:0201F3001F08E3
:0201F4001F0AE0
:0201F5001F0BDE
:0201F6001F0DDB
:0201F7001F0FD8
:0201F8001F10D6
:0201F9001F12D3
:0201FA001F14D0
:0201FB001F15CE
:0201FC001F17CB
:0201FD001F19C8
:0201FE001F1AC6
:0201FF001F1CC3
:00000001ff
