:020000040000FA
:0300000009DE68AE
:030001000ADBEE29
:0300020008C0C370
:03000300066892FA
:0300040001D01E0A
:030005000049347B
:030006000B1913C0
:030007000C7EBFAD
:030008000D1E903A
:0300090001D0998A
:03000A0009CF76A5
:03000B000D45217F
:03000C000C338A28
:03000D000DB6BF6E
:03000E000F9E74CE
:03000F00065CD2BA
:030010000D48890F
:030011000730278E
:030012000F3CBCE4
:030013000A2202BC
:03001400079A1533
:03001500042B14A5
:030016000B34DDCB
:0300170009453860
:030018000EB0D750
:03001900026F8CE7
:03001A00053A1F85
:03001B0004E85E98
:03001C00000DCC08
:03001D0009D3986C
:03001E000E0E7251
:03001F00058EDC6F
:030020000AAAAF7A
:030021000DFE8150
:030022000B65B2B9
:030023000F27E2C2
:030024000B5AA4D0
:030025000D764312
:03002600041C7443
:03002700050FE4DE
:03002800035B83F4
:0300290005A89295
:03002A000CC256AF
:03002B000A468CF6
:03002C00078191B8
:03002D000C7555FA
:03002E00070A3688
:03002F000268C2A2
:030030000E7BA2A2
:030031000798B578
:030032000E509AD3
:030033000F63CE8A
:030034000BDC954D
:03003500014CEA91
:03003600022FB4E2
:030037000E6C7DCF
:030038000BFCFDC1
:030039000FB3BE44
:03003A0006232D6D
:03003B000CA465AD
:03003C000A7D1921
:03003D000A23F2A1
:03003E0002A2C259
:03003F000115EDBB
:0300400002487BF8
:030041000C6C3410
:0300420008ED3690
:030043000E607DCF
:030044000A8CCF54
:030045000C8D819E
:030046000F0E9A00
:0300470002A1C94A
:03004800082BBAC8
:030049000B6943FD
:03004A000D8BFD1E
:03004B000FEDC5F1
:03004C000EDAC702
:03004D000C7188AB
:03004E000B989676
:03004F000B096C2E
:0300500000701B22
:03005100039F5EAC
:0300520009D8A228
:030053000127B7CB
:030054000BD1B914
:030055000BD6CFF8
:030056000E867D96
:0300570008261464
:030058000FA8F4FA
:030059000A7A4DD3
:03005A000858043F
:03005B000F3E70E5
:03005C00076496A0
:03005D0007489DB4
:03005E000FCC2E96
:03005F00086069CD
:030060000B41331E
:0300610001BF8E4E
:03006200009AB051
:0300630004679F90
:030064000E07057F
:030065000F28FA67
:0300660006DE8A29
:030067000E38B0A0
:0300680004F48A13
:030069000E348FC3
:03006A000D4679C7
:03006B000275CA51
:03006C0007EA851B
:03006D000E9412DC
:03006E000B1FF372
:03006F0002FC256B
:030070000964F32D
:030071000C7E0DF5
:030072000276A56E
:0300730006B86E5E
:0300740007214021
:0300750001473E02
:030076000FC7436E
:03007700079D6D75
:030078000587A356
:030079000B71D533
:03007A000DEBDDAE
:03007B0001A8D603
:03007C000907AFC2
:03007D0001A4E5F6
:03007E0001F53554
:03007F0006E91679
:030080000198E6FE
:0300810004F998E7
:030082000399BE21
:030083000D66D631
:030084000D7AA84A
:0300850007F0A2DF
:0300860007C2FFAF
:030087000CAFA516
:03008800092496B2
:030089000033D071
:03008A00038E8062
:03008B0001876783
:03008C00031C58FA
:03008D000A06A9B7
:03008E000ED2810E
:03008F000EFCE282
:030090000B1854F6
:0300910004F81C54
:030092000DE1D3AA
:0300930004C5574A
:03009400047AEEFD
:0300950002078AD5
:030096000AE70A6C
:03009700035C6B9C
:0300980004C7CFCB
:030099000C02371F
:03009A0007BEE7B7
:03009B0006F25713
:03009C00073E9A82
:03009D00036526D2
:03009E0001BDE2BF
:03009F0002B37732
:0300A0000F44B258
:0300A100078AFECD
:0300A2000145D441
:0300A300066B0ADF
:0300A40003BBFC9F
:0300A500075F6E84
:0300A6000F8019AF
:0300A70008EFD689
:0300A8000DCF4930
:0300A900043A080E
:0300AA000CF7242C
:0300AB00022DFF24
:0300AC00061F70BC
:0300AD0001E30E5E
:0300AE0004289D86
:0300AF000FFD96AC
:0300B0000B96A408
:0300B1000F1D1A06
:0300B20003804D7B
:0300B300014ABF40
:0300B4000F7B10AF
:0300B5000260AA3C
:0300B6000A7C0DB4
:0300B7000362C41D
:0300B80002A6DAC3
:0300B90006C1D7A6
:0300BA0006032E0C
:0300BB000D8210A3
:0300BC0000129D92
:0300BD00053E56A7
:0300BE00083FE018
:0300BF000701EC4A
:0300C000012152C9
:0300C10006F24301
:0300C20008888D1E
:0300C30004C2E68E
:0300C400085934A4
:0300C5000CEDBE81
:0300C600082148C6
:0300C7000AAA0979
:0300C8000F6D6B4E
:0300C9000A9C99F5
:0300CA0008D3C494
:0300CB000E3C1ACE
:0300CC0005B06517
:0300CD000FE44BF2
:0300CE00028E1C83
:0300CF000793375D
:0300D0000C36E803
:0300D100004BBF22
:0300D2000567635C
:0300D3000E18BF45
:0300D4000D209765
:0300D50004AC7107
:0300D6000593D0BF
:0300D7000E97B1D0
:0300D8000BA4472F
:0300D9000514F318
:0300DA000EFA66B5
:0300DB000862E9CF
:0300DC000AA4CBA8
:0300DD0008AAE08E
:0300DE000E4318B6
:0300DF000F6F168A
:0300E00007B6D888
:0300E100097D4D49
:0300E2000D56E6D2
:0300E3000162199E
:0300E40008A1C1AF
:0300E5000A596C49
:0300E600016B7833
:0300E7000BB90A48
:0300E8000983D4B5
:0300E9000CD19F98
:0300EA0008D19C9E
:0300EB0001436866
:0300EC0009DFD059
:0300ED0005C34107
:0300EE0006D9DF51
:0300EF000D4D476D
:0300F00006F3EB29
:0300F1000EC20D2F
:0300F2000C3C4B78
:0300F30002EBBD60
:0300F40001D3969F
:0300F50002E858C6
:0300F6000A8877FE
:0300F70006F68684
:0300F8000FD4D250
:0300F90005A26BF2
:0300FA000139A524
:0300FB00034FFAB6
:0300FC0003F74ABD
:0300FD000220835B
:0300FE00031FA13C
:0300FF00023100CB
:03010000000004F8
:0301010005C13EF7
:03010200082E596B
:030103000AD5B367
:03010400078ECE95
:03010500027B0575
:030106000E9CD27A
:030107000301F3FE
:03010800007CD99F
:0301090007E9CD36
:03010A0000FC6C8A
:03010B000192203E
:03010C0005866401
:03010D000705A340
:03010E00075BB4D8
:03010F00083AE9C2
:030110000578E58A
:030111000F3E5846
:0301120004A6E957
:030113000ECEB657
:030114000C4ABDD5
:030115000D09C40D
:030116000E9B3409
:0301170008D9A064
:030118000AF6954F
:0301190008E5787E
:03011A0009234373
:03011B0002D90006
:03011C000C56E09E
:03011D0009E600F0
:03011E000CEEC81C
:03011F0003721553
:0301200007D335CD
:0301210000F0F5F6
:03012200028BF756
:030123000DF88F45
:03012400031A813A
:0301250001A8F737
:030126000AB916FD
:03012700028DA79F
:0301280002AA4ADE
:030129000C28BFE0
:03012A000A4ECAB0
:03012B0005635613
:03012C0005C16E9C
:03012D000727BAE7
:03012E000C43344B
:03012F000273CB8D
:0301300005C9BA44
:03013100053A602C
:03013200070B6058
:030133000D72F258
:030134000B6C351C
:0301350009BE7E82
:030136000C36770D
:030137000710218D
:0301380004909B95
:030139000ACEC02B
:03013A0001A99C7C
:03013B0008EBC905
:03013C000E9AC157
:03013D0005714EFB
:03013E000B841C13
:03013F00010FB0FD
:030140000F6ECE71
:03014100003898EB
:03014200048584AD
:030143000C5A6BE8
:030144000E38E88A
:030145000ED44E87
:0301460008EA764E
:03014700053FAEC3
:0301480002BD12E3
:030149000EB0B540
:03014A000D2ED0A7
:03014B0001936DB0
:03014C000723DDA9
:03014D0009CF587F
:03014E000F0E3958
:03014F000EDF2C94
:030150000CE1C9F6
:03015100018E0517
:030152000387E23E
:03015300010EE8B2
:030154000988C651
:030155000726AFCB
:0301560008A4D723
:030157000B23ADCA
:03015800041A3E48
:030159000B6152E5
:03015A000556CE79
:03015B000D18E19B
:03015C000ED88D2D
:03015D0002431E3C
:03015E0005021B7C
:03015F00055150F7
:030160000CAA8264
:030161000A866AA1
:030162000F328ECB
:0301630006BB9F39
:0301640003EBF1B9
:030165000B5DB877
:030166000EA0AB3D
:030167000772B468
:03016800030B4D39
:030169000D7947C6
:03016A000D128EE5
:03016B000DF5AAE5
:03016C000D9CA443
:03016D000680FE0B
:03016E000BD07D36
:03016F0005325EF8
:030170000A9CD214
:03017100003A4C05
:03017200025E85A5
:03017300018AC836
:030174000E816594
:030175000667E634
:030176000EF7E59C
:0301770002BE24A1
:030178000D67BF51
:03017900081D2A34
:03017A0005EACEC5
:03017B000036F05B
:03017C000344CB6E
:03017D000AC47E33
:03017E000E6FB44D
:03017F000EB2C0FD
:030180000161F426
:030181000E7B0AE8
:030182000CF26517
:030183000F8BEFF0
:0301840001BF7543
:0301850004A83C8F
:030186000BFFAAC2
:030187000B22D474
:030188000222C090
:030189000ADF2862
:03018A00062BA29F
:03018B0008FEEB80
:03018C0009AC4378
:03018D000D2694A8
:03018E00044D5BC2
:03018F0009430A17
:030190000CCCD1C3
:0301910003BBA607
:03019200045E56B2
:0301930003FC8DDD
:03019400045AA367
:0301950001460D13
:030196000E2A53DB
:0301970003AE6450
:030198000D5A25D8
:0301990007441FF9
:03019A000BC71E72
:03019B00013FBB66
:03019C0007D18AFE
:03019D000733F82D
:03019E000C869834
:03019F00082CD554
:0301A0000BB0E0C1
:0301A10007ADC7E0
:0301A20009C08F02
:0301A3000A803F90
:0301A4000B7CB61B
:0301A500054437D7
:0301A600056F954D
:0301A7000CB4D8BD
:0301A8000D004FF8
:0301A9000793EBCE
:0301AA000B2CDA41
:0301AB00022F2FF1
:0301AC0000D7A0D9
:0301AD00037323B6
:0301AE000C9C7432
:0301AF00037F4685
:0301B000022132F7
:0301B10003B03068
:0301B20002D691E1
:0301B300081465C8
:0301B400081E35ED
:0301B5000240FE07
:0301B6000ECB5B12
:0301B7000D7BC7F6
:0301B80003F3E866
:0301B9000C30C740
:0301BA000307EF49
:0301BB0006A95A38
:0301BC0005261500
:0301BD000AFB94A6
:0301BE0001A39FFB
:0301BF000E28C146
:0301C0000FBF3836
:0301C1000E624289
:0301C2000975C5F7
:0301C300066C4087
:0301C4000F70EDCC
:0301C50002160E11
:0301C6000E0750D1
:0301C70003C03939
:0301C80003468B60
:0301C9000AE89CA5
:0301CA0005FF82AC
:0301CB000BB5135E
:0301CC000DCDA9AD
:0301CD0007759320
:0301CE000C1232DE
:0301CF000616B160
:0301D00005DC4506
:0301D100007DEDC1
:0301D2000EB7AEB7
:0301D3000BC9292C
:0301D400045B9732
:0301D500056B0DAA
:0301D6000B3309DF
:0301D700001E34D3
:0301D8000BB94F11
:0301D90001A94534
:0301DA0000A4512D
:0301DB00016E2F83
:0301DC0005D752F2
:0301DD0007BF0A4F
:0301DE0008189C62
:0301DF000DF337E6
:0301E0000584C8CB
:0301E1000F379144
:0301E2000EBA91C1
:0301E3000A149E5D
:0301E40008BA3323
:0301E50002A5E789
:0301E6000F738410
:0301E700057DB1E2
:0301E80008FE2CE2
:0301E9000B308850
:0301EA000977672B
:0301EB000C84275A
:0301EC000780FB8E
:0301ED00073D6962
:0301EE00015D2090
:0301EF0003892160
:0301F00002A3392E
:0301F10009FBB84F
:0301F2000A896710
:0301F3000A23B527
:0301F40002BF0C3B
:0301F50001AB510A
:0301F60006D483A9
:0301F70004056D8F
:0301F8000C2C6C60
:0301F90002A24619
:0301FA000A72F492
:0301FB0005A87DD7
:0301FC000497B7AE
:0301FD00052F02C9
:0301FE000246E5D1
:0301FF0002F49A6D
:00000001ff
