:020000040000FA
:0300000006031DD7
:030001000CE5A863
:03000200025EDDBE
:030003000B99FC5A
:0300040009C01F11
:030005000A63E1AA
:0300060007EAFA0C
:0300070009F41EDB
:0300080005BB95A0
:030009000E7CBBAF
:03000A0005D0F826
:03000B000C0CCE0C
:03000C00009AA1B6
:03000D000252F1AB
:03000E000FD2AD61
:03000F0007CFA474
:03001000096AB5C5
:03001100047FE386
:0300120009F52EBF
:030013000C067860
:030014000E90E269
:03001500075B6F17
:030016000E5E4536
:030017000E08923E
:0300180003844A14
:030019000EF87B63
:03001A0003CACD49
:03001B0008DE26D6
:03001C0008D11DEB
:03001D00023A7C28
:03001E0007E438BC
:03001F0001058850
:03002000097B3C1D
:0300210001FF19C3
:03002200005DCFAF
:030023000FABE53B
:0300240000794B15
:030025000903C309
:0300260005687CEE
:0300270007D421DA
:0300280008B276A5
:0300290006DBF4FF
:03002A0007C39475
:03002B0007A29792
:03002C0009A4081C
:03002D00080F2792
:03002E000470500B
:03002F0007C231D4
:030030000294DE59
:030031000D350F7B
:0300320007D1DF14
:030033000AA20717
:0300340006085B60
:0300350002B767A8
:0300360001D427CB
:030037000D187D24
:0300380006F47F4C
:030039000AAF2EDD
:03003A000C867AB7
:03003B0009CEF6F5
:03003C0009126D39
:03003D000A2E0088
:03003E00066FA2A8
:03003F0000B34DBE
:03004000057F1425
:030041000B1EECA7
:0300420001C003F7
:03004300038B5CD0
:0300440004BFCB2B
:0300450003CBCE1C
:03004600096670D8
:0300470008A813F3
:030048000F224A3A
:0300490004F7B405
:03004A000CF2F5C0
:03004B00049DD041
:03004C000456D285
:03004D000F679C9E
:03004E00041A3A57
:03004F000BCDEEE8
:030050000B0C0D89
:03005100019BD63A
:030052000A96BF4C
:030053000C7B73B0
:030054000940CD93
:030055000E692908
:0300560005140E80
:0300570002106430
:0300580005EE476B
:030059000D102463
:03005A000FBBD504
:03005B00022B185D
:03005C00049C2AD7
:03005D000361D468
:03005E0006F2E4C3
:03005F0003FA01A0
:030060000B64A48A
:030061000A71F031
:030062000AC1963A
:030063000261F542
:0300640003DE3781
:030065000E4C54EA
:030066000D5A86AA
:03006700095C9F92
:0300680007594BEA
:03006900091696DF
:03006A000D27312E
:03006B000EF5F29D
:03006C0006D301B7
:03006D0009FF196F
:03006E000AB7933B
:03006F000841EB5A
:030070000EF73256
:03007100084EF244
:030072000AEA6D2A
:030073000A9F25BC
:030074000881B050
:0300750002EFCEC9
:03007600059AC226
:0300770009919359
:03007800054A65D1
:030079000CACA22A
:03007A00011A71F7
:03007B000179AF59
:03007C000A3D98A2
:03007D00056FAB61
:03007E000AB84D70
:03007F000F67F711
:03008000067F8078
:0300810000B8893B
:030082000C8E0FD2
:0300830006444CE4
:0300840007F0FF83
:030085000982FFEE
:0300860000CA3E6F
:03008700017F7383
:030088000D4B68B5
:0300890003CE762D
:03008A0002A7C802
:03008B00057C965B
:03008C0005FEFB73
:03008D000BF5036D
:03008E000D3F65BE
:03008F000DE0354C
:0300900000019AD2
:0300910003FBE38B
:03009200085C61A6
:0300930009EB670F
:0300940003B28E26
:030095000F0288CF
:0300960003796586
:03009700070869EE
:030098000DF983DC
:030099000AF5580D
:03009A000F08CB81
:03009B0009AA5D52
:03009C0008BFA5F5
:03009D0008A29224
:03009E0004271321
:03009F00049F9328
:0300A00001E2B3C7
:0300A100024FFD0E
:0300A2000AD4BAC3
:0300A3000EF12E2D
:0300A40000BD029A
:0300A50000EC1755
:0300A6000ED34135
:0300A700086CA33F
:0300A8000A5C6B84
:0300A9000FF51B35
:0300AA00033BC451
:0300AB000CECC298
:0300AC00047F6569
:0300AD00002A63C3
:0300AE0004E82C37
:0300AF00067A6569
:0300B000076E5781
:0300B1000920C55E
:0300B2000BC19EE1
:0300B3000E57E500
:0300B4000EC57AFC
:0300B50009CA92E3
:0300B6000B09D063
:0300B7000D0B47E7
:0300B8000940629A
:0300B90008074DE8
:0300BA0000AE4D48
:0300BB000977358D
:0300BC00079A7A26
:0300BD000F4B03E3
:0300BE0003B8BEC6
:0300BF00071458CB
:0300C0000A91FCA6
:0300C1000E6CA022
:0300C20001E90F42
:0300C3000358E7F8
:0300C400001D5AC2
:0300C50004AA6822
:0300C6000C89960C
:0300C700025CA434
:0300C8000FE0B393
:0300C9000DF0B186
:0300CA000488287F
:0300CB000AC5F172
:0300CC0006EEDC61
:0300CD000E702C86
:0300CE0005E279CF
:0300CF00010BC062
:0300D00002E22029
:0300D1000D8E8908
:0300D200026E9F1C
:0300D30002179180
:0300D4000C584E77
:0300D500003BE20B
:0300D6000C0B9878
:0300D7000D515C6C
:0300D80000DA1E2D
:0300D90002B7B9B2
:0300DA000E433A98
:0300DB000E1F28CD
:0300DC000C39617B
:0300DD0001CD67EB
:0300DE0007663181
:0300DF0004E09F9B
:0300E000016CE0D0
:0300E1000390DFAA
:0300E200012A26CA
:0300E3000F6F7527
:0300E40002F32DF7
:0300E5000FA4A1C4
:0300E60008D251EC
:0300E700012BAE3C
:0300E8000AC2B891
:0300E900070DF10F
:0300EA0006E9D54F
:0300EB000A9B0865
:0300EC0001CFAD94
:0300ED000BA11351
:0300EE00069595DF
:0300EF0000A20B61
:0300F000072B9B40
:0300F100070912EA
:0300F2000C849BE0
:0300F300035D208A
:0300F40006C843F8
:0300F50001733B59
:0300F6000D84F87E
:0300F700049F184B
:0300F8000FDF7F98
:0300F90007E226F5
:0300FA0004C2013C
:0300FB000E1A706A
:0300FC000B090AE3
:0300FD00022EB818
:0300FE0009B0E95D
:0300FF00073B1AA2
:03010000000001FB
:0301010006C652DD
:030102000C7AFC78
:030103000599C19A
:030104000A52E6B6
:03010500072313BA
:030106000D683A47
:0301070003F2DB25
:0301080007932B2F
:030109000BA353F2
:03010A000A8DF368
:03010B000651B6E4
:03010C00090130B6
:03010D0005404367
:03010E0006BDE942
:03010F0002ABCB75
:0301100008322989
:0301110000E165A5
:0301120001215573
:03011300089CEE57
:0301140002AC6CCE
:0301150006BC1114
:0301160008B177B6
:03011700094DA3EC
:03011800068D4809
:030119000C06DAF7
:03011A0003465049
:03011B0004268037
:03011C000529545E
:03011D000BCCD038
:03011E000CDF5C97
:03011F000CD0F908
:0301200000039D3C
:030121000B194572
:0301220003403661
:030123000E7DD678
:0301240003F7AB33
:030125000C3AB7DA
:03012600018172E2
:030127000FF7F0DF
:0301280005FED7FA
:03012900046C85DE
:03012A000ECD2CCB
:03012B000BA13FE6
:03012C00049A959D
:03012D0006D86A87
:03012E000321D0DA
:03012F000E1F0D93
:030130000091CA71
:03013100078BAC8D
:0301320004A465BD
:030133000E2E117C
:030134000F68FD54
:0301350008B58882
:030136000FC61ED3
:030137000FCF01E6
:0301380009B5ED19
:0301390004404936
:03013A000C408FE7
:03013B0004C2A358
:03013C000737ACD6
:03013D0003A01EFE
:03013E0000B629DF
:03013F000C160596
:030140000A669BB1
:03014100078050E4
:030142000693B170
:03014300024F1C4C
:030144000D03D5D3
:0301450000CA1AD3
:030146000FA4956E
:0301470003A319F6
:030148000F052C74
:030149000C5ABF8E
:03014A000EA5857A
:03014B000178D266
:03014C000919008E
:03014D00029A9F74
:03014E0004006149
:03014F000C591434
:0301500003DCA825
:030151000C088512
:030152000FBC07D8
:0301530003536AE9
:0301540004C338A9
:030155000BB239B1
:030156000993F911
:0301570009C1AB30
:03015800019355BB
:03015900007872B9
:03015A00000FC3D0
:03015B00043F045A
:03015C000B4A014A
:03015D000DE92E7B
:03015E000F602B04
:03015F000D938B72
:03016000011E4736
:030161000D66C365
:0301620000B3A740
:03016300043FF363
:030164000C4F2518
:030165000840C788
:0301660002A38F62
:030167000148321A
:03016800055444F7
:030169000B53E550
:03016A000B4C0932
:03016B0008CBDDE1
:03016C0002FE028E
:03016D0004B9B61C
:03016E000492EC0C
:03016F0004EB603E
:030170000401D9AE
:030171000C02B8C5
:030172000316B0C1
:030173000B72BB51
:03017400036658C7
:03017500056AF226
:030176000831A5A8
:030177000EB1EDD9
:03017800083753F2
:03017900006F5DB7
:03017A000F768974
:03017B0009E64949
:03017C0000E13E61
:03017D000220A2BB
:03017E0008008AEC
:03017F00098C25C3
:030180000A8A32B6
:030181000B88D513
:0301820009E91C6C
:030183000FEAF888
:0301840004B82993
:030185000C6FA15B
:0301860008308AB4
:030187000624F754
:03018800018C5E89
:0301890002C66D3E
:03018A000F5CDC2B
:03018B000A0DF961
:03018C0002D61187
:03018D0006F9DC94
:03018E00010F5FFF
:03018F000907E974
:03019000043954DB
:030191000566D62A
:030192000CCA6034
:03019300081D3F05
:0301940002A0D6F0
:03019500052764D7
:03019600061C49FB
:03019700098C557B
:03019800012E0530
:030199000C695A94
:03019A00086042B8
:03019B000FF59DC0
:03019C000BD5C8B8
:03019D00027D726E
:03019E0008416BAA
:03019F000F55BA3F
:0301A00007D50C74
:0301A1000FC79CE9
:0301A200032A55D8
:0301A3000BF578E1
:0301A40002237FB4
:0301A5000BB7E3B2
:0301A6000CC55E27
:0301A70007749E3C
:0301A8000C0A8AB4
:0301A90008EEB1AC
:0301AA000AB0EFA9
:0301AB000C10290C
:0301AC0005FFB894
:0301AD000FADD8BB
:0301AE000E88B800
:0301AF00064505FD
:0301B00008E2EA78
:0301B10006B3D6BC
:0301B2000E5FEEEF
:0301B3000CEB69E9
:0301B4000DBBDBA5
:0301B5000A9D7C24
:0301B6000BC8393A
:0301B70007E4C892
:0301B80004117EB1
:0301B90003E792C7
:0301BA00097FB901
:0301BB000576D8EE
:0301BC0006F2F553
:0301BD000BA7B4D9
:0301BE000FDAC88D
:0301BF000E68CBFC
:0301C00000C93C37
:0301C1000F133FDA
:0301C2000001D366
:0301C30008F7E555
:0301C4000E04AB7B
:0301C50001E7AAA5
:0301C6000614DE3E
:0301C7000AB893E0
:0301C8000EBBB0BB
:0301C9000FC7233A
:0301CA000A4811CF
:0301CB0009738B2A
:0301CC00074A16C9
:0301CD000C9B9FE9
:0301CE00010B1012
:0301CF000B11AE63
:0301D0000002C664
:0301D100040F51C7
:0301D2000A48E7F1
:0301D30004A5A6DA
:0301D40004032CF5
:0301D500082A2BCA
:0301D6000FD15FE7
:0301D70008A0D6A7
:0301D8000F3538A8
:0301D9000F22BB37
:0301DA0002F842E6
:0301DB0004427962
:0301DC000B8E98EF
:0301DD00006D951D
:0301DE000976DFC0
:0301DF000C4B685E
:0301E0000D981D5A
:0301E100011936CB
:0301E200099C7DF8
:0301E300090433D9
:0301E4000049D1FE
:0301E5000F809BED
:0301E60005D81A1F
:0301E700019EE294
:0301E800004500CF
:0301E9000E5E7A2D
:0301EA0007A5C6A0
:0301EB0006FE4EBF
:0301EC000676CACA
:0301ED000F4B872E
:0301EE0009E8D845
:0301EF000DED868D
:0301F000022CC31B
:0301F1000CB0B19E
:0301F20002BC8BC1
:0301F30008CEB47F
:0301F40002A31D46
:0301F50003353E91
:0301F6000CC2191F
:0301F70000CA88B3
:0301F8000015519E
:0301F9000AB0BB8E
:0301FA000FF545B9
:0301FB000E86E984
:0301FC0004578D18
:0301FD000EA8AA9F
:0301FE000A0D8463
:0301FF00026C7E11
:00000001ff
