:020000040000FA
:01000000A55A
:01000100A658
:01000200A657
:01000300A755
:01000400A754
:01000500A852
:01000600A851
:01000700A94F
:01000800A94E
:01000900AA4C
:01000A00AA4B
:01000B00AB49
:01000C00AB48
:01000D00AB47
:01000E00AC45
:01000F00AC44
:01001000AD42
:01001100AD41
:01001200AE3F
:01001300AE3E
:01001400AF3C
:01001500AF3B
:01001600B039
:01001700B038
:01001800B037
:01001900B135
:01001A00B134
:01001B00B232
:01001C00B231
:01001D00B230
:01001E00B32E
:01001F00B32D
:01002000B42B
:01002100B42A
:01002200B429
:01002300B527
:01002400B526
:01002500B624
:01002600B623
:01002700B622
:01002800B720
:01002900B71F
:01002A00B71E
:01002B00B81C
:01002C00B81B
:01002D00B919
:01002E00B918
:01002F00B917
:01003000BA15
:01003100BA14
:01003200BA13
:01003300BB11
:01003400BB10
:01003500BB0F
:01003600BC0D
:01003700BC0C
:01003800BC0B
:01003900BD09
:01003A00BD08
:01003B00BD07
:01003C00BE05
:01003D00BE04
:01003E00BE03
:01003F00BE02
:01004000BF00
:01004100BFFF
:01004200BFFE
:01004300C0FC
:01004400C0FB
:01004500C0FA
:01004600C1F8
:01004700C1F7
:01004800C1F6
:01004900C1F5
:01004A00C2F3
:01004B00C2F2
:01004C00C2F1
:01004D00C2F0
:01004E00C3EE
:01004F00C3ED
:01005000C3EC
:01005100C4EA
:01005200C4E9
:01005300C4E8
:01005400C4E7
:01005500C5E5
:01005600C5E4
:01005700C5E3
:01005800C5E2
:01005900C6E0
:01005A00C6DF
:01005B00C6DE
:01005C00C6DD
:01005D00C7DB
:01005E00C7DA
:01005F00C7D9
:01006000C7D8
:01006100C8D6
:01006200C8D5
:01006300C8D4
:01006400C8D3
:01006500C9D1
:01006600C9D0
:01006700C9CF
:01006800C9CE
:01006900C9CD
:01006A00CACB
:01006B00CACA
:01006C00CAC9
:01006D00CAC8
:01006E00CBC6
:01006F00CBC5
:01007000CBC4
:01007100CBC3
:01007200CBC2
:01007300CCC0
:01007400CCBF
:01007500CCBE
:01007600CCBD
:01007700CCBC
:01007800CDBA
:01007900CDB9
:01007A00CDB8
:01007B00CDB7
:01007C00CDB6
:01007D00CEB4
:01007E00CEB3
:01007F00CEB2
:01008000CEB1
:01008100CEB0
:01008200CFAE
:01008300CFAD
:01008400CFAC
:01008500CFAB
:01008600CFAA
:01008700D0A8
:01008800D0A7
:01008900D0A6
:01008A00D0A5
:01008B00D0A4
:01008C00D0A3
:01008D00D1A1
:01008E00D1A0
:01008F00D19F
:01009000D19E
:01009100D19D
:01009200D29B
:01009300D29A
:01009400D299
:01009500D298
:01009600D297
:01009700D296
:01009800D394
:01009900D393
:01009A00D392
:01009B00D391
:01009C00D390
:01009D00D38F
:01009E00D38E
:01009F00D48C
:0100A000D48B
:0100A100D48A
:0100A200D489
:0100A300D488
:0100A400D487
:0100A500D585
:0100A600D584
:0100A700D583
:0100A800D582
:0100A900D581
:0100AA00D580
:0100AB00D57F
:0100AC00D67D
:0100AD00D67C
:0100AE00D67B
:0100AF00D67A
:0100B000D679
:0100B100D678
:0100B200D677
:0100B300D775
:0100B400D774
:0100B500D773
:0100B600D772
:0100B700D771
:0100B800D770
:0100B900D76F
:0100BA00D86D
:0100BB00D86C
:0100BC00D86B
:0100BD00D86A
:0100BE00D869
:0100BF00D868
:0100C000D867
:0100C100D965
:0100C200D964
:0100C300D963
:0100C400D962
:0100C500D961
:0100C600D960
:0100C700D95F
:0100C800D95E
:0100C900DA5C
:0100CA00DA5B
:0100CB00DA5A
:0100CC00DA59
:0100CD00DA58
:0100CE00DA57
:0100CF00DA56
:0100D000DA55
:0100D100DB53
:0100D200DB52
:0100D300DB51
:0100D400DB50
:0100D500DB4F
:0100D600DB4E
:0100D700DB4D
:0100D800DB4C
:0100D900DB4B
:0100DA00DC49
:0100DB00DC48
:0100DC00DC47
:0100DD00DC46
:0100DE00DC45
:0100DF00DC44
:0100E000DC43
:0100E100DC42
:0100E200DC41
:0100E300DD3F
:0100E400DD3E
:0100E500DD3D
:0100E600DD3C
:0100E700DD3B
:0100E800DD3A
:0100E900DD39
:0100EA00DD38
:0100EB00DD37
:0100EC00DE35
:0100ED00DE34
:0100EE00DE33
:0100EF00DE32
:0100F000DE31
:0100F100DE30
:0100F200DE2F
:0100F300DE2E
:0100F400DE2D
:0100F500DE2C
:0100F600DF2A
:0100F700DF29
:0100F800DF28
:0100F900DF27
:0100FA00DF26
:0100FB00DF25
:0100FC00DF24
:0100FD00DF23
:0100FE00DF22
:0100FF00DF21
:01010000807E
:01010100807D
:01010200817B
:010103008279
:010104008278
:010105008376
:010106008474
:010107008572
:010108008571
:01010900866F
:01010A00876D
:01010B00876C
:01010C00886A
:01010D008968
:01010E008967
:01010F008A65
:010110008B63
:010111008B62
:010112008C60
:010113008D5E
:010114008D5D
:010115008E5B
:010116008E5A
:010117008F58
:010118009056
:010119009055
:01011A009153
:01011B009152
:01011C009250
:01011D00934E
:01011E00934D
:01011F00944B
:01012000944A
:010121009548
:010122009547
:010123009645
:010124009644
:010125009742
:010126009741
:01012700983F
:01012800993D
:01012900993C
:01012A009A3A
:01012B009A39
:01012C009B37
:01012D009B36
:01012E009C34
:01012F009C33
:010130009D31
:010131009D30
:010132009E2E
:010133009E2D
:010134009F2B
:010135009F2A
:010136009F29
:01013700A027
:01013800A026
:01013900A124
:01013A00A123
:01013B00A221
:01013C00A220
:01013D00A31E
:01013E00A31D
:01013F00A31C
:01014000A41A
:01014100A419
:01014200A517
:01014300A516
:01014400A614
:01014500A613
:01014600A612
:01014700A710
:01014800A70F
:01014900A80D
:01014A00A80C
:01014B00A80B
:01014C00A909
:01014D00A908
:01014E00AA06
:01014F00AA05
:01015000AA04
:01015100AB02
:01015200AB01
:01015300ACFF
:01015400ACFE
:01015500ACFD
:01015600ADFB
:01015700ADFA
:01015800ADF9
:01015900AEF7
:01015A00AEF6
:01015B00AEF5
:01015C00AFF3
:01015D00AFF2
:01015E00AFF1
:01015F00B0EF
:01016000B0EE
:01016100B0ED
:01016200B1EB
:01016300B1EA
:01016400B1E9
:01016500B2E7
:01016600B2E6
:01016700B2E5
:01016800B3E3
:01016900B3E2
:01016A00B3E1
:01016B00B4DF
:01016C00B4DE
:01016D00B4DD
:01016E00B5DB
:01016F00B5DA
:01017000B5D9
:01017100B6D7
:01017200B6D6
:01017300B6D5
:01017400B6D4
:01017500B7D2
:01017600B7D1
:01017700B7D0
:01017800B8CE
:01017900B8CD
:01017A00B8CC
:01017B00B8CB
:01017C00B9C9
:01017D00B9C8
:01017E00B9C7
:01017F00BAC5
:01018000BAC4
:01018100BAC3
:01018200BAC2
:01018300BBC0
:01018400BBBF
:01018500BBBE
:01018600BBBD
:01018700BCBB
:01018800BCBA
:01018900BCB9
:01018A00BCB8
:01018B00BDB6
:01018C00BDB5
:01018D00BDB4
:01018E00BDB3
:01018F00BEB1
:01019000BEB0
:01019100BEAF
:01019200BEAE
:01019300BFAC
:01019400BFAB
:01019500BFAA
:01019600BFA9
:01019700C0A7
:01019800C0A6
:01019900C0A5
:01019A00C0A4
:01019B00C1A2
:01019C00C1A1
:01019D00C1A0
:01019E00C19F
:01019F00C19E
:0101A000C29C
:0101A100C29B
:0101A200C29A
:0101A300C299
:0101A400C397
:0101A500C396
:0101A600C395
:0101A700C394
:0101A800C393
:0101A900C491
:0101AA00C490
:0101AB00C48F
:0101AC00C48E
:0101AD00C48D
:0101AE00C58B
:0101AF00C58A
:0101B000C589
:0101B100C588
:0101B200C686
:0101B300C685
:0101B400C684
:0101B500C683
:0101B600C682
:0101B700C780
:0101B800C77F
:0101B900C77E
:0101BA00C77D
:0101BB00C77C
:0101BC00C77B
:0101BD00C879
:0101BE00C878
:0101BF00C877
:0101C000C876
:0101C100C875
:0101C200C973
:0101C300C972
:0101C400C971
:0101C500C970
:0101C600C96F
:0101C700C96E
:0101C800CA6C
:0101C900CA6B
:0101CA00CA6A
:0101CB00CA69
:0101CC00CA68
:0101CD00CB66
:0101CE00CB65
:0101CF00CB64
:0101D000CB63
:0101D100CB62
:0101D200CB61
:0101D300CC5F
:0101D400CC5E
:0101D500CC5D
:0101D600CC5C
:0101D700CC5B
:0101D800CC5A
:0101D900CD58
:0101DA00CD57
:0101DB00CD56
:0101DC00CD55
:0101DD00CD54
:0101DE00CD53
:0101DF00CD52
:0101E000CE50
:0101E100CE4F
:0101E200CE4E
:0101E300CE4D
:0101E400CE4C
:0101E500CE4B
:0101E600CF49
:0101E700CF48
:0101E800CF47
:0101E900CF46
:0101EA00CF45
:0101EB00CF44
:0101EC00CF43
:0101ED00D041
:0101EE00D040
:0101EF00D03F
:0101F000D03E
:0101F100D03D
:0101F200D03C
:0101F300D03B
:0101F400D139
:0101F500D138
:0101F600D137
:0101F700D136
:0101F800D135
:0101F900D134
:0101FA00D133
:0101FB00D231
:0101FC00D230
:0101FD00D22F
:0101FE00D22E
:0101FF00D22D
:00000001ff
