:020000040000FA
:030000000F333F7C
:030001000B463D6E
:030002000FC06BC1
:030003000C8D0061
:0300040001977BE6
:030005000ECBA17E
:0300060004157C62
:0300070001615C38
:03000800069BD282
:0300090003B1B28E
:03000A0008900E4D
:03000B0005243B8E
:03000C00095BCBC2
:03000D0005248D3A
:03000E00086C8DEE
:03000F00032213B6
:0300100005339F16
:030011000E8FEE61
:030012000F25F2C5
:0300130006E4D828
:0300140005BC0127
:030015000B9B053D
:030016000871B0BE
:030017000C3004A6
:0300180006C634E5
:030019000824A810
:03001A00003BF6B2
:03001B000EFCE8F0
:03001C000458770E
:03001D00003FCAD7
:03001E0002A43900
:03001F000B774913
:030020000AAAAA7F
:0300210000303B71
:030022000BFA06D0
:030023000DFA3F94
:030024000623466A
:030025000467A3CA
:0300260008BA090C
:03002700030D5175
:0300280003547E00
:030029000982B990
:03002A00058B52F1
:03002B000761C0AA
:03002C000EF99E2C
:03002D000C46ACD2
:03002E000F3CD0B4
:03002F0007D012E5
:0300300005F49D37
:03003100099EC263
:0300320002C2F017
:030033000155BBB9
:03003400054BD7A2
:030035000E9A1907
:030036000D357510
:03003700011300B2
:030038000A27F0A4
:03003900086997BC
:03003A000BCD6883
:03003B000448F185
:03003C0001D1E10E
:03003D00045E025C
:03003E000BE33C95
:03003F00085792CD
:0300400009B124DF
:030041000FE62D9A
:030042000AED05BF
:030043000ABC1CD8
:030044000F49FF62
:03004500088D53D0
:03004600067CD85D
:03004700090F6836
:03004800003BF387
:030049000BF9852B
:03004A000C3F4127
:03004B000104624B
:03004C000A403B2C
:03004D0007EA3689
:03004E0009F9D4D9
:03004F000066AD9B
:030050000B28700A
:030051000A36E08C
:030052000D89D83D
:0300530005194943
:0300540000DD3696
:0300550000CDBB20
:0300560004E306BA
:030057000D155B29
:03005800095D102F
:0300590009B29257
:03005A000E0E5F28
:03005B000669092A
:03005C0002BB37AD
:03005D0002FDA001
:03005E0007290F60
:03005F000F3663F6
:030060000B1E8AEA
:030061000ADA8731
:030062000E636CBE
:0300630005B25E85
:0300640000C09346
:030065000F8753AF
:0300660001FFF6A1
:030067000823E388
:0300680001EC9513
:030069000F53939F
:03006A00005278C9
:03006B0004E2EDBF
:03006C000CFEA9DE
:03006D00089F7574
:03006E0007BF29A0
:03006F000A57AB82
:030070000062EF3C
:0300710009DAFAAF
:0300720006B9DFED
:0300730006F9BDCE
:030074000A94C427
:03007500018531D1
:030076000BC54D6A
:03007700094F73BB
:030078000A1E0756
:030079000E2B7CCF
:03007A00057253B9
:03007B000FED1A6C
:03007C000D966975
:03007D000E68E921
:03007E00025F4CD2
:03007F00097452AF
:0300800003A2C810
:0300810000E58512
:0300820001376ED5
:0300830004937271
:030084000AF48EED
:030085000455C956
:0300860000B23590
:030087000004F082
:0300880002492406
:03008900077A05EE
:03008A000F92D101
:03008B000A8ED307
:03008C0008695FA1
:03008D00091DD476
:03008E000CA79C20
:03008F0003022B3E
:030090000C28FF3A
:030091000817A0AD
:0300920006C99FFD
:03009300083A9A8E
:030094000C6635C2
:03009500034820FD
:030096000CDC136C
:03009700091DD26E
:030098000809272D
:030099000999E7DB
:03009A000DCBF19A
:03009B00049B2B98
:03009C000E0385CB
:03009D000A00F85E
:03009E00088F8543
:03009F0009AB3674
:0300A0000D501DE3
:0300A100037A5788
:0300A2000C260623
:0300A300074F55AF
:0300A40004F279EA
:0300A500050BAD9B
:0300A60007973584
:0300A7000C915E5B
:0300A80003F67AE2
:0300A9000DC2E69F
:0300AA0009F30354
:0300AB0008833E89
:0300AC00097007D1
:0300AD000CB5D9B6
:0300AE00025134C8
:0300AF000A3EA066
:0300B000047AAE21
:0300B1000101F357
:0300B2000FD10E5D
:0300B30000E4A2C4
:0300B40004395AB2
:0300B50009CBEB89
:0300B60001990BA2
:0300B7000B9D7C22
:0300B80007D60365
:0300B900063F6D92
:0300BA0006D68ED9
:0300BB0009983F62
:0300BC000E816250
:0300BD00058EDBD2
:0300BE000EBD98DC
:0300BF000A0A8C9E
:0300C0000772B014
:0300C10006F30241
:0300C20008888823
:0300C3000C304DB1
:0300C40001E761F0
:0300C50009AADBAA
:0300C6000377D8E5
:0300C7000F4B7963
:0300C8000D22E620
:0300C9000CFB4DE0
:0300CA000ED1E074
:0300CB0002A3D7B6
:0300CC00086E714A
:0300CD00002EEF13
:0300CE0009E29CA8
:0300CF000586C3E0
:0300D0000318B85A
:0300D1000295D4C1
:0300D20003FB72BB
:0300D3000746F5E8
:0300D4000C75C5E3
:0300D50003854E52
:0300D6000C7300A8
:0300D700073C5192
:0300D80003DEBD87
:0300D9000257C308
:0300DA0002A4E697
:0300DB0004C3B1AA
:0300DC0008B1B0B8
:0300DD000E6C7630
:0300DE0005F19990
:0300DF000F3EB51C
:0300E0000A516A58
:0300E10007275B93
:0300E20005BE3127
:0300E30006139A67
:0300E400082545A7
:0300E5000BF0E934
:0300E60001744062
:0300E70008AD065B
:0300E8000198FF7D
:0300E9000C35F0E3
:0300EA000881A4E6
:0300EB000679E9AA
:0300EC00061C905F
:0300ED0007677131
:0300EE000A586548
:0300EF000EED4AC9
:0300F000052403E1
:0300F1000CFA7492
:0300F200066E880F
:0300F300017E2C5F
:0300F4000E275084
:0300F5000C67E9AC
:0300F6000C3DEFCF
:0300F7000DA75FF3
:0300F80000A2372C
:0300F900052C7C57
:0300FA000B443381
:0300FB0002E766B3
:0300FC000C1423BE
:0300FD0006C87BB7
:0300FE0003028278
:0300FF0000C050EE
:03010000000000FC
:0301010005FB04F7
:0301020007D845D6
:03010300057A5E1C
:030104000EC450D6
:0301050003997FDC
:0301060003DDB066
:030107000F750C65
:0301080006441694
:03010900082FB00C
:03010A00051D19B7
:03010B000CF1E70D
:03010C000F940A43
:03010D000CE9C931
:03010E0004D9C051
:03010F00074ADFBD
:030110000424695B
:030111000B4DF1A2
:030112000CAF5DD2
:030113000830DDD4
:030114000DBAF32E
:030115000D366A3A
:03011600068C59FB
:0301170009A62115
:03011800066D6A07
:030119000CCC25E6
:03011A000CAC88A2
:03011B0005F90FD4
:03011C00089C78C4
:03011D000481C793
:03011E0009943F02
:03011F0007BF66B1
:030120000EEEFFE1
:030121000F0F0FAE
:03012200080BD6F1
:0301230009D1D22D
:03012400044DBFC8
:03012500076C90D4
:03012600031B7444
:030127000747D5B2
:0301280003DF52A0
:0301290008CFC339
:03012A000607388D
:03012B000B73F55E
:03012C0009047350
:03012D000EA760BA
:03012E000C4B9DDA
:03012F0001E03FAD
:030130000F548ADF
:030131000497F63A
:03013200019A2A05
:03013300064AFD7C
:03013400029A76B6
:030135000678C980
:0301360001D65897
:0301370004A3B36B
:030138000ED19550
:030139000050E58E
:03013A000912B7F0
:03013B000908466A
:03013C000022FAA4
:03013D000E5464F9
:03013E00038E3BF2
:03013F000FC2628A
:0301400002E2DFF9
:030141000CE1E5E9
:030142000DB1C735
:030143000545026D
:03014400038E38EF
:0301450008802F00
:03014600040DD2D3
:03014700062A2F56
:030148000EC87866
:030149000DDC01C9
:03014A0003584314
:03014B000F30D79B
:03014C00015976E0
:03014D0009C5FDE4
:03014E00086A68D4
:03014F000D3AD492
:03015000082B7DFC
:030151000930BFB3
:03015200003F1358
:030153000D4B133E
:03015400004975EA
:03015500092F0F60
:0301560007F0D2DD
:030157000C83CD49
:0301580006DD2C95
:0301590006F23576
:03015A000CB84D91
:03015B000824F184
:03015C00092DBCAE
:03015D000FC86365
:03015E000BEAB3F6
:03015F000D8A9670
:03016000049E0EEC
:03016100011B3847
:0301620002F84858
:030163000A2B8DD7
:0301640006AB6C7B
:03016500086E63BE
:030166000F6B0913
:030167000B980CE6
:030168000CEC306C
:03016900035E50E2
:03016A000EE5603F
:03016B000F7868A2
:03016C00050E87F6
:03016D000F9EF2F0
:03016E000F20F26D
:03016F00038BE817
:030170000CD74762
:030171000AFA9AED
:030172000DED7D13
:0301730005A7A33A
:030174000220D195
:030175000350E351
:03017600092FC48A
:0301770003B57756
:0301780002DA0D9B
:030179000695AF39
:03017A000EE095FF
:03017B000BB30BB8
:03017C000D056E00
:03017D0002D02E7F
:03017E000D0BCD99
:03017F000BB0DEE4
:030180000EB806B0
:030181000619F864
:0301820001CF7D2D
:0301830001D16B3C
:030184000618ABAF
:030185000E9E3398
:030186000B5B0C04
:030187000C484FD2
:03018800015F24F0
:030189000A98C110
:03018A0007EE6F0E
:03018B000959838C
:03018C000ED3632C
:03018D000855838F
:03018E0005D96729
:03018F0007589F6F
:030190000CCCCCC8
:03019100062F9D99
:03019200037ACD20
:0301930004A82796
:0301940009B1832B
:030195000290C70E
:030196000F3FE533
:030197000FB8E0BE
:0301980003F5C3A9
:030199000BF0ABBD
:03019A0007A3BEFA
:03019B000709321F
:03019C000A1B46F5
:03019D0000D44942
:03019E000B2E9491
:03019F0009248EA2
:0301A0000AB0A8FA
:0301A1000FCD611E
:0301A2000875429B
:0301A30004A2E1D2
:0301A4000450DF25
:0301A5000779E9EE
:0301A6000E18B67A
:0301A7000828091C
:0301A80005A2B1FC
:0301A90006838743
:0301AA000AC56E15
:0301AB0002635696
:0301AC000D5837B4
:0301AD000B9F1590
:0301AE000D32FE11
:0301AF00020F0C30
:0301B0000A2E60B4
:0301B100058C2793
:0301B2000423988B
:0301B30005EFF362
:0301B4000AEC83CF
:0301B50003149C94
:0301B6000E639A3B
:0301B7000CD4E67F
:0301B8000E63F0E3
:0301B900030C3004
:0301BA000AC92B44
:0301BB0005966B3B
:0301BC00036F8648
:0301BD00045019D2
:0301BE000833CC37
:0301BF000F164CCC
:0301C00008F353EE
:0301C10005C6A1CF
:0301C200058BFFAB
:0301C300083F3EB4
:0301C4000DDC3718
:0301C500065ECE05
:0301C60001C2EA89
:0301C700000480B1
:0301C800011F888C
:0301C9000510041A
:0301CA000BD1FF57
:0301CB0005618942
:0301CC0001BABCB9
:0301CD0000D9B99D
:0301CE0002BAA7CB
:0301CF000759B716
:0301D0000EB31F4C
:0301D10008C31E42
:0301D2000585F8A8
:0301D30004F7FC32
:0301D40007157D8F
:0301D5000BDAD56D
:0301D60003446679
:0301D7000D4E9A30
:0301D80009F5DE48
:0301D9000936AB39
:0301DA000B0D7C8E
:0301DB000F76D5C7
:0301DC00066F406B
:0301DD000FF34ECF
:0301DE000BFF967E
:0301DF000A90B5CE
:0301E0000BA3501E
:0301E1000F340FC9
:0301E200053FA432
:0301E3000DC2C585
:0301E40008BA2E28
:0301E5000622A24D
:0301E60005F8E831
:0301E7000839D103
:0301E8000CE22FF7
:0301E90003EEDD45
:0301EA000D5CBBEE
:0301EB000928AE32
:0301EC00074FA218
:0301ED0007CE87B3
:0301EE000AA2540E
:0301EF000FC80432
:0301F000073C9930
:0301F10000FD19F5
:0301F2000D069166
:0301F3000B561296
:0301F4000BE8B362
:0301F5000EBB8FAF
:0301F60003CBC771
:0301F7000B168262
:0301F8000498EA7E
:0301F90000503182
:0301FA000E398A31
:0301FB000E523170
:0301FC0000976405
:0301FD000506678D
:0301FE000B9C83D4
:0301FF000457059D
:00000001ff
