:020000040000FA
:030000000CE9CC3C
:03000100056E1376
:0300020007245878
:03000300022F5178
:0300040006B353ED
:0300050004D11310
:030006000CAF4FED
:030007000E6B6419
:030008000A264085
:03000900000233BF
:03000A00001C28AF
:03000B000A911F38
:03000C000F815011
:03000D000F096870
:03000E000943C4DF
:03000F000E4BCACB
:030010000E3E5B46
:030011000932971A
:030012000F45DCBB
:03001300008D2835
:030014000D226456
:03001500051E3B8A
:030016000895BD8D
:0300170007A21726
:0300180002594743
:0300190008CD0807
:03001A000B18318F
:03001B00094BA2EC
:03001C00037BA4BF
:03001D0009BDEA30
:03001E000C236C44
:03001F000AC047CD
:0300200005A73BF6
:030021000CEA33B3
:030022000099EB57
:0300230000C88E84
:030024000D87DB6A
:0300250006E5C32A
:030026000CF3CA0E
:030027000FBF14F4
:030028000F5C84E6
:030029000BD6B93A
:03002A00053EB7D9
:03002B000BA0D94E
:03002C000F0BA710
:03002D000F900031
:03002E000D37315A
:03002F000811B9FC
:0300300000295A4A
:03003100058D2C0E
:0300320008495822
:0300330008690257
:0300340005F83894
:0300350001049A29
:03003600099659CF
:030037000FB9FFFF
:03003800037BE95E
:0300390004E612C8
:03003A000400EBD4
:03003B0000D8509A
:03003C000B76B58B
:03003D0003E606D1
:03003E000A2D8107
:03003F000E593E19
:0300400000724407
:03004100008084B8
:030042000E8D041C
:030043000AA228E6
:0300440004C622CD
:030045000D02A405
:03004600035E7ED8
:0300470007E43497
:030048000A9A3DD4
:030049000B8827FA
:03004A000AB3C432
:03004B000829067B
:03004C0003EC12B0
:03004D000E037C23
:03004E00067888A9
:03004F000D50133E
:0300500002928990
:030051000643A1C2
:03005200086D67CF
:0300530009168209
:03005400083FB6AC
:0300550005F4D9D6
:03005600023A99D2
:030057000D14364F
:030058000689B462
:030059000EA00DE9
:03005A00055E75CB
:03005B000AC7FAD7
:03005C000EE1F4BE
:03005D0001B47A71
:03005E00034161FA
:03005F00039016F5
:0300600002A59E58
:0300610000849E7A
:030062000D33ED6E
:0300630008B829B1
:0300640003143F43
:030065000C4D7CC3
:03006600046956D4
:030067000B6AAF72
:030068000157D16C
:03006900063163FA
:03006A000A016820
:03006B000CC4D8EA
:03006C000E84BE41
:03006D000F43E856
:03006E000F05D0AB
:03006F000DCD7B39
:030070000BA08959
:030071000880877D
:03007200047244D1
:030073000F77C242
:0300740009975198
:0300750002D2A212
:030076000B2B85CC
:0300770002A94D8E
:03007800094AF53D
:030079000F14BEA3
:03007A00040CC4AF
:03007B00083261E7
:03007C000B89E409
:03007D000E1890CA
:03007E000FDD563D
:03007F0000DD8D14
:03008000011BF071
:030081000099746F
:030082000F5A67AB
:030083000D609479
:030084000AB0BC03
:03008500074BD056
:030086000333063B
:030087000E6B8D70
:0300880008F69DDA
:0300890002D65A42
:03008A000C0C7CDF
:03008B00049CFAD8
:03008C000C8922BA
:03008D0003D37B1F
:03008E000A7ECF18
:03008F00008C3BA7
:030090000600A7C0
:030091000AD9EC9D
:030092000F1BE160
:0300930002C8D8C8
:0300940005E4AED2
:03009500086EBC36
:030096000A68D520
:030097000BD7DDA7
:030098000CBA8C13
:030099000D12C184
:03009A000CE4A6CD
:03009B000C3179AC
:03009C000AFB124A
:03009D0009400F08
:03009E000707A1B0
:03009F00044E6AA2
:0300A0000118A79D
:0300A1000D686E79
:0300A200093C2DE9
:0300A3000498D7E7
:0300A4000F7F8D3E
:0300A50009F0DC83
:0300A60003EF4D18
:0300A7000D7B448A
:0300A80006966257
:0300A9000F43976B
:0300AA000780DAF2
:0300AB000F542BC4
:0300AC0006BC7C13
:0300AD000DB94545
:0300AE00045051AA
:0300AF000A7F4E77
:0300B0000047D82E
:0300B10005ACE6B5
:0300B2000AAF345E
:0300B3000F4FD11B
:0300B4000390F4C2
:0300B50007706D64
:0300B6000AF370DA
:0300B7000E196CB3
:0300B80000E26DF6
:0300B90003517779
:0300BA0005676770
:0300BB000725D343
:0300BC00088AE4CB
:0300BD00099BC4D8
:0300BE000A55E6FA
:0300BF000ABD83F4
:0300C0000AD10E54
:0300C1000A91DBC6
:0300C2000A01A090
:0300C3000922E42B
:0300C40007F4023C
:0300C50006773982
:0300C60004ADFA8C
:0300C70002965747
:0300C8000034629F
:0300C9000D884659
:0300CA000A92D6C1
:0300CB000754BD1A
:0300CC0003CE97C9
:0300CD0000002010
:0300CE000BED6BCC
:0300CF000795276B
:0300D00002F7250F
:0300D1000E178F78
:0300D20008F43FF0
:0300D300038DFC9E
:0300D4000DE66BCB
:0300D50007FF4BD7
:0300D60001D862EC
:0300D7000B70B8F3
:0300D80004CBBA9C
:0300D9000DE981AD
:0300DA0006CA044F
:0300DB000F6F1A8A
:0300DC0007D85DE5
:0300DD0000071BFE
:0300DE0007F9DA45
:0300DF000FB56AF0
:0300E000073719C6
:0300E1000E80305E
:0300E2000593BEC5
:0300E3000C6E633D
:0300E4000314B74B
:0300E50009842E5D
:0300E6000FBD2F1C
:0300E70005C2E16E
:0300E8000B94BEB8
:0300E90001351CC2
:0300EA0006A078F5
:0300EB000BDA67C6
:0300EC0000E3CD61
:0300ED0005BB79D7
:0300EE000A62544F
:0300EF000ED7CB5E
:0300F000031F7675
:0300F1000738616C
:0300F2000B23FAE3
:0300F3000EDF45D8
:0300F400026F3464
:0300F50005D02211
:0300F60009069B5D
:0300F7000C115F8A
:0300F8000EEDFB0F
:0300F90001A1BDA5
:0300FA00042C9A39
:0300FB00068B0F62
:0300FC0008BF4DED
:0300FD000ACC4CDE
:0300FE000CB0BF84
:0300FF000E6D1E65
:030100000000A953
:030101000B1CFDD7
:030102000C98ABAB
:0301030004A2E370
:0301040003732A58
:0301050009399F16
:030106000625507B
:030107000A67661E
:03010800062C8C36
:0301090009A24CFC
:03010A0004F28A72
:03010B00084B2C72
:03010C0003D3C159
:03010D0007B5FD36
:03010E00041721B2
:03010F000921467D
:0301100006FAC02C
:030111000DC3A07B
:030112000DA4AF8A
:0301130006BEEF36
:030114000936C0E9
:03011500052A9820
:030116000ABDD34C
:030117000A0FCC00
:03011800033EB5EE
:030119000669E490
:03011A0003B1F23C
:03011B000B2F06A1
:03011C000D02438E
:03011D0009438A09
:03011E0000122AA2
:03011F000185D384
:030120000DB960B6
:0301210004C70C04
:0301220006C769A4
:0301230003D1FF06
:030124000BFFAF1F
:030125000F65FE65
:030126000E1D9A11
:03012700083B1082
:030128000DD5F3FF
:030129000F0304BD
:03012A000BD6AC45
:03012B000466BDAA
:03012C0008C4D72D
:03012D0009058839
:03012E00053C028B
:03012F000D79DE69
:0301300001D4787F
:03013100025B313D
:030132000F1FA7F5
:030133000832642B
:030134000DA7F61E
:030135000F8BC469
:030136000DF1D6F2
:0301370008E7AA2C
:03013800007D7ACD
:0301390004C24EAF
:03013A0005C57583
:03013B00039334F7
:03013C000E3E76FE
:03013D0005D011D9
:03013E000A590D4E
:03013F000BE38F40
:030140000A8042F0
:03014100063ABFBC
:030142000F1EE6A7
:0301430005381765
:03014400089422FA
:03014500093F2D42
:03014600074481EA
:0301470002AC66A1
:030148000B86C95A
:0301490001DB6770
:03014A0005B612E5
:03014B0007226A1E
:03014C000628275B
:03014D0002D36E6C
:03014E000D2CD89D
:03014F00053E4525
:030150000B12F897
:030151000EB0A449
:030152000024C6C0
:030153000F74F333
:030154000CACEA06
:0301550007D13699
:0301560000EEE9CF
:03015700080CA9E8
:030158000D306601
:03015900006488B7
:03015A0001AF6B87
:03015B00011A90F6
:03015C000EADE005
:03015D000A6EAE79
:03015E0004641F17
:03015F000C969B60
:03016000030DA9E3
:0301610007CF3E87
:030162000AE3C1EC
:030163000C4F7BC3
:030164000C18BEB6
:030165000A47DB6B
:0301660006E27737
:0301670001ED3275
:030168000B71F325
:0301690003735DC0
:03016A0009F82D64
:03016B000F061864
:03016C0002A125C8
:03016D0004D2FDBC
:03016E00059C9F4E
:03016F0005076918
:0301700003147CF9
:030171000FCE00AE
:030172000B3377D5
:03017300054ECE68
:030174000E1FEC6F
:0301750005B0FED4
:030176000C02E296
:03017700011B7FEA
:0301780004FEEF93
:0301790007B48E3A
:03017A00093B5DE1
:03017B00099CCC10
:03017C0008D8FBA5
:03017D0006F6C4BF
:03017E0003FB740C
:03017F000FE8384E
:030180000AC11E93
:03018100048C8368
:030182000D4B4CD6
:030183000503DA97
:030184000BB8A90C
:03018500016CBD4D
:030186000624E26A
:0301870009E5F097
:030188000CAFDBDE
:030189000E88D805
:03018A000F71E30F
:03018B000F717A77
:03018C000E868755
:03018D000CB9A109
:03018E000A0993C8
:03018F00067A0EDF
:0301900002105901
:030191000CCDC2D0
:0301920006B6228C
:030193000FCCD6B8
:030194000811F956
:030195000F8A517D
:030196000638BF69
:030197000C200633
:030198000143AD73
:0301990005A317A4
:03019A00094557BD
:03019B000C279599
:03019C000E517091
:03019D000FC2F995
:03019E00007FFFE0
:03019F000088B71E
:0301A0000FE06EFF
:0301A1000E88E8DD
:0301A2000C863296
:0301A30009D9F87F
:0301A40006851BB2
:0301A500028BF7D3
:0301A6000DEF2D2D
:0301A70008B01588
:0301A80002D12D54
:0301A9000C57C22E
:0301AA0005416BA1
:0301AB000D92AF03
:0301AC00054B47B9
:0301AD000C71339F
:0301AE0003011F2B
:0301AF0009013E05
:0301B0000E71CC01
:0301B100035527CC
:0301B20007AC1D7A
:0301B3000B786C5A
:0301B4000EBB6F10
:0301B5000177FBD4
:0301B60003B07320
:0301B7000566A733
:0301B800069902A3
:0301B900074B955C
:0301BA00078006B5
:0301BB0007364FB5
:0301BC000671AA1F
:0301BD00053466A0
:0301BE00037D5965
:0301BF00015107E4
:0301C0000EAD473A
:0301C1000B94FBA1
:0301C200080B0522
:0301C300040FC95D
:0301C4000FA588FC
:0301C5000ACC263B
:0301C6000586218A
:0301C7000FD2252F
:0301C80009B58FE7
:0301C900032F11F0
:0301CA000C405096
:0301CB0004EC4CF5
:0301CC000D31DC16
:0301CD000511C851
:0301CE000C8FBAD9
:0301CF0003ABAFD0
:0301D0000A65E9D4
:0301D10000C289E0
:0301D20006BF095C
:0301D3000C5E625D
:0301D400019F93F5
:0301D50006872674
:0301D6000B14F413
:0301D7000F48B21C
:0301D8000324CC31
:0301D90006A9F084
:0301DA0009D885BC
:0301DB000CB3154D
:0301DC000F38B326
:0301DD00016B04AF
:0301DE00034A9140
:0301DF0004DA88B7
:0301E0000617D629
:0301E1000707020B
:0301E20007A82A41
:0301E30007FA7B9D
:0301E400080021EF
:0301E50007BB88CD
:0301E600072B02E2
:0301E70006506659
:0301E800052CF5EE
:0301E90003C0E36D
:0301EA00020C08FC
:0301EB000010A75A
:0301EC000DCFE153
:0301ED000B497E3D
:0301EE00087D3A4F
:0301EF00056F1F7A
:0301F000021CF0FE
:0301F1000E8881F4
:0301F2000AB2C688
:0301F300069AEF7A
:0301F4000243C003
:0301F5000DAE62EA
:0301F60008D953D2
:0301F70003C56FCE
:0301F8000E75D7AA
:0301F90008E748CC
:0301FA00031EC819
:0301FB000D19ECEF
:0301FC0006DAAB75
:0301FD000060217E
:0301FE0009AE7FC8
:0301FF0002C1D169
:00000001ff
